:020000040800F2
:10000000E8100020C50400081D0500081D050008B3
:100010001D0500081D0500081D0500080000000062
:100020000000000000000000000000001D050008A6
:100030001D050008000000001D0500084102000821
:100040001D0500081D0500081D0500081D05000808
:100050001D0500081D0500081D0500081D050008F8
:100060001D0500081D0500081D0500081D050008E8
:100070001D0500081D0500081D0500081D050008D8
:100080001D0500081D0500081D0500081D050008C8
:100090001D0500081D0500081D0500081D050008B8
:1000A0001D0500081D0500081D0500081D050008A8
:1000B0001D0500081D0500081D0500081D05000898
:1000C0001D0500081D0500081D0500081D05000888
:1000D0001D0500081D0500081D0500081D05000878
:1000E0001D0500081D0500081D0500081D05000868
:1000F0001D0500081D0500081D0500081D05000858
:100100001D0500081D0500081D0500081D05000847
:100110001D0500081D0500081D0500081D05000837
:100120001D0500081D0500081D0500081D05000827
:100130001D0500081D0500081D0500081D05000817
:100140001D0500081D0500081D0500081D05000807
:100150001D0500081D0500081D0500081D050008F7
:100160001D0500081D0500081D0500081D050008E7
:100170001D0500081D0500081D0500081D050008D7
:100180001D0500081D05000880B483B000AF0346BC
:100190003960FB7197F90730002B0BDA0D49FB79B9
:1001A00003F00F03043B3A68D2B21201D2B20B44FF
:1001B0001A7609E0084997F907303A68D2B2120175
:1001C000D2B20B4483F800230C37BD465DF8047BA4
:1001D000704700BF00ED00E000E100E080B582B0B4
:1001E00000AF78607B68B3F1807F01D3012311E019
:1001F0000A4A7B6823F07F43013B53604FF0FF3096
:100200000F21FFF7C1FF054B00229A60034B072225
:100210001A60002318460837BD4680BD10E000E094
:1002200080B500AF044B1B68044AA2FB03239B0C60
:100230001846FFF7D3FF80BD1000002083DE1B436C
:1002400080B400AF064B1B68002B04D0044B1B6826
:10025000013B034A1360BD465DF8047B704700BF55
:100260009C08002080B483B000AF7860064A7B68A9
:10027000136000BF044B1B68002BFBD10C37BD463D
:100280005DF8047B704700BF9C08002080B582B0F9
:1002900000AF786003E04FF47A70FFF7E3FF7B680C
:1002A0005A1E7A60002BF6D10837BD4680BD00BFCC
:1002B00080B58AB000AF7860396000237B6200238C
:1002C0003B620023FB610023BB617B681B8A9BB2FE
:1002D0007B627B6A23F440537B623B68DB881A466F
:1002E0007B6A13437B627B6A9AB27B681A827B6863
:1002F0009B899BB27B627B6A23F4B05323F00C038F
:100300007B623B689A883B681B8913439AB23B68BF
:100310005B8913439BB21A467B6A13437B627B6AF9
:100320009AB27B689A817B689B8A9BB27B627B6A6C
:1003300023F440737B623B689B891A467B6A1343B4
:100340007B627B6A9AB27B689A8207F1080318463F
:1003500000F05CFA7B68314A934203D07B68304AF4
:10036000934202D17B693B6201E03B693B627B685F
:100370009B899BB29BB21BB2002B0CDA3A6A1346E4
:100380009B0013449A001A443B681B685B00B2FB55
:10039000F3F3FB610BE03A6A13469B0013449A00A7
:1003A0001A443B681B689B00B2FBF3F3FB61FB69DB
:1003B0001C4AA2FB03235B091B017B627B6A1B09AE
:1003C000642202FB03F3FA69D31ABB617B689B8941
:1003D0009BB29BB21BB2002B0CDABB69DB00323341
:1003E000104AA2FB03235B0903F007037A6A134355
:1003F0007B620BE0BB691B0132330A4AA2FB032379
:100400005B0903F00F037A6A13437B627B6A9AB23B
:100410007B681A812837BD4680BD00BF00100140AF
:10042000001401401F85EB5180B483B000AF7860A9
:100430000B46FB70FB78002B08D07B689B899BB236
:1004400043F400539AB27B689A8107E07B689B89EA
:100450009BB223F400539AB27B689A810C37BD4655
:100460005DF8047B704700BF80B483B000AF786054
:100470000B467B807B88C3F308039AB27B689A8023
:100480000C37BD465DF8047B704700BF80B485B073
:1004900000AF78600B467B800023FB737B681B8872
:1004A0009AB27B8813409BB2002B02D00123FB73CE
:1004B00001E00023FB73FB7B18461437BD465DF853
:1004C000047B704780B582B000AF0F4B7B600F4B51
:1004D0003B6007E03B681A1D3A607A68111D79603D
:1004E00012681A603B680A4A9342F3D309480A49E2
:1004F0004FF000028842B8BF40F8042BFADB00F04E
:1005000011F80837BD4680BD045C000800000020DB
:100510009C0800209C080020E808002080B400AF60
:10052000FEE700BF80B500AF00F008FDFFF778FEE2
:1005300000F040FD00F01CF800F052F803461A46A7
:10054000084B1A80074B1B88074808491A4600F0D9
:100550009FFD054800F088FD4FF47A70FFF796FE86
:10056000EAE700BFA0080020DC080020785A000855
:1005700080B588B000AF4FF48070012100F00EFA12
:1005800003233B770223BB610023FB7707F11803AA
:100590001148194600F0CCFB00237B7100233B611E
:1005A0000023FB600023BB6001233B7500233B60FD
:1005B00000233B713B460948194600F047FA0748BB
:1005C000012100F097FA054809210122042300F0D7
:1005D000ADFA2037BD4680BD000402400020014036
:1005E00080B500AF084800F06BFB00BF0648022151
:1005F00000F084FB0346002BF8D0034800F070FBAA
:100600000346184680BD00BF0020014080B400AF03
:10061000104A104B1B6843F0010313600D4B00227E
:100620009A600C4A0B4B1B6823F0847323F48033CD
:100630001360084B084A5A60064A064B1B6823F4AD
:1006400080231360034B0022DA60BD465DF8047B13
:10065000704700BF003802401030002480B483B0DF
:1006600000AF0346FB71054B00221A70034AFB7969
:1006700013700C37BD465DF8047B704702380240AA
:1006800080B582B000AF00233B600023FB710023E4
:10069000BB71312000F0A0F90346BB713B68013308
:1006A0003B603B68B3F5A06F02D0BB79002BF0D064
:1006B000312000F091F90346002B02D00123FB7199
:1006C00001E00023FB71FB7918460837BD4680BD69
:1006D00080B485B000AFF860B9607A603B600A49C9
:1006E0007B689A01BB681A433B685B08013B1B04AB
:1006F0001A43FB681A43BB691B0613434B6014374C
:10070000BD465DF8047B70470038024080B483B07A
:1007100000AF0346FB71044AFB7913600C37BD46FA
:100720005DF8047B704700BF6000474280B485B02D
:1007300000AF78600023FB60094B9B68FB60FB689F
:1007400023F00303FB60FA687B681343FB60044AF1
:10075000FB6893601437BD465DF8047B704700BFAB
:100760000038024080B485B000AF78600023FB60A1
:10077000094B9B68FB60FB6823F0F003FB60FA68A1
:100780007B681343FB60044AFB6893601437BD46E3
:100790005DF8047B704700BF0038024080B485B02C
:1007A00000AF78600023FB60094B9B68FB60FB682F
:1007B00023F4E053FB60FA687B681343FB60044A50
:1007C000FB6893601437BD465DF8047B704700BF3B
:1007D0000038024080B485B000AF78600023FB6031
:1007E000094B9B68FB60FB6823F46043FB607B68FC
:1007F000DB00FA681343FB60034AFB68936014371D
:10080000BD465DF8047B70470038024080B489B073
:1008100000AF78600023BB6100237B610023FB6194
:1008200002233B610023FB600223BB60484B9B68B3
:1008300003F00C03BB61BB69042B07D0082B09D064
:10084000002B3FD17B68434A1A603FE07B68424AF5
:100850001A603BE03E4B5B6803F480039B0DFB603A
:100860003B4B5B6803F03F03BB60FB68002B0DD084
:10087000394ABB68B2FBF3F2354B596847F6C0738F
:100880000B409B0903FB02F3FB610CE0314ABB68A0
:10089000B2FBF3F22E4B596847F6C0730B409B092D
:1008A00003FB02F3FB612A4B5B6803F440331B0C30
:1008B00001335B003B61FA693B69B2FBF3F27B6891
:1008C0001A6003E07B68234A1A6000BF204B9B68D4
:1008D00003F0F003BB61BB691B09BB611F4ABB6925
:1008E00013441B78DBB27B617B681A687B69DA4052
:1008F0007B685A60164B9B6803F4E053BB61BB698D
:100900009B0ABB61154ABB6913441B78DBB27B6150
:100910007B685A687B69DA407B689A600C4B9B68FD
:1009200003F46043BB61BB695B0BBB610B4ABB69F2
:1009300013441B78DBB27B617B685A687B69DA40C1
:100940007B68DA602437BD465DF8047B704700BFE2
:10095000003802400024F40000127A000000002059
:1009600080B483B000AF78600B46FB70FB78002B3F
:1009700006D00949084B1A6B7B6813430B6306E0EA
:100980000549054B1A6B7B68DB4313400B630C373F
:10099000BD465DF8047B70470038024080B483B0E8
:1009A00000AF78600B46FB70FB78002B06D009493E
:1009B000084B5A6C7B6813434B6406E00549054BB2
:1009C0005A6C7B68DB4313404B640C37BD465DF8C3
:1009D000047B70470038024080B487B000AF034604
:1009E000FB710023FB6000237B610023FB74FB7918
:1009F0005B09DBB2FB60FB68012B03D1124B1B6868
:100A00007B6109E0FB68022B03D10F4B1B6F7B61FD
:100A100002E00D4B5B6F7B61FB7903F01F03FB6012
:100A2000FB687A6922FA03F303F00103002B02D07A
:100A30000123FB7401E00023FB74FB7C18461C3788
:100A4000BD465DF8047B70470038024080B485B035
:100A500000AF786039600023FB600023FB727B6885
:100A60005B68FB60FB6823F0407323F48073FB60DA
:100A70003B681B791A023B681B681343FA681343EF
:100A8000FB607B68FA685A607B689B68FB60FA6869
:100A9000174B1340FB603B681A693B68DB681A43DD
:100AA0003B689B681A433B685B795B001343FA68B9
:100AB0001343FB607B68FA689A607B68DB6AFB60C3
:100AC000FB6823F47003FB603B681B7D013BDAB2DB
:100AD000FB7A1343FB72FB7A1B05FA681343FB6036
:100AE0007B68FA68DA621437BD465DF8047B7047AC
:100AF000FDF7FFC080B483B000AF78600B46FB7099
:100B0000FB78002B06D07B689B6843F001027B6872
:100B10009A6005E07B689B6823F001027B689A601D
:100B20000C37BD465DF8047B704700BF80B485B0CC
:100B300000AF7860084611461A460346FB700B4624
:100B4000BB7013467B700023FB600023BB60FB7807
:100B5000092B23D97B68DB68FB60FB78A3F10A02D1
:100B600013465B001344072202FA03F3BB60BB6821
:100B7000DB43FA681340FB607978FB78A3F10A0243
:100B800013465B00134401FA03F3BB60FA68BB68C9
:100B90001343FB607B68FA68DA601EE07B681B69C0
:100BA000FB60FA7813465B001344072202FA03F352
:100BB000BB60BB68DB43FA681340FB607978FA7866
:100BC00013465B00134401FA03F3BB60FA68BB6889
:100BD0001343FB607B68FA681A61BB78062B21D847
:100BE0007B685B6BFB60BB785A1E13469B0013440B
:100BF0001F2202FA03F3BB60BB68DB43FA681340B1
:100C0000FB60F978BB785A1E13469B00134401FA27
:100C100003F3BB60FA68BB681343FB607B68FA6848
:100C20005A6347E0BB780C2B21D87B681B6BFB60B9
:100C3000BB78DA1F13469B0013441F2202FA03F30A
:100C4000BB60BB68DB43FA681340FB60F978BB7894
:100C5000DA1F13469B00134401FA03F3BB60FA68E2
:100C6000BB681343FB607B68FA681A6322E07B6809
:100C7000DB6AFB60BB78A3F10D0213469B001344B3
:100C80001F2202FA03F3BB60BB68DB43FA68134020
:100C9000FB60F978BB78A3F10D0213469B00134467
:100CA00001FA03F3BB60FA68BB681343FB607B681F
:100CB000FA68DA621437BD465DF8047B704700BFFE
:100CC00080B483B000AF78607B689B6843F080425B
:100CD0007B689A600C37BD465DF8047B704700BFA7
:100CE00080B483B000AF78607B68DB6C9BB2184641
:100CF0000C37BD465DF8047B704700BF80B485B0FB
:100D000000AF78600B46FB700023FB737B681A68AA
:100D1000FB781340002B02D00123FB7301E000237A
:100D2000FB73FB7B18461437BD465DF8047B7047A8
:100D300080B487B000AF7860396000237B61002306
:100D40003B610023FB6000237B6176E07B6901222D
:100D500002FA03F33B613B681A683B691340FB608E
:100D6000FA683B699A4265D17B681A687B695B00C7
:100D7000194603238B40DB431A407B681A607B686B
:100D80001A683B681B7919467B695B0001FA03F31B
:100D90001A437B681A603B681B79012B03D03B68C0
:100DA0001B79022B2ED17B689A687B695B00194600
:100DB00003238B40DB431A407B689A607B689A6808
:100DC0003B685B7919467B695B0001FA03F31A43C0
:100DD0007B689A607B685A687B699BB219460123DD
:100DE0008B40DB431A407B685A607B685B683A68DB
:100DF000927911467A6992B201FA02F292B21A43DA
:100E00007B685A607B68DA687B699BB25B00032170
:100E100001FA03F3DB431A407B68DA607B68DA6827
:100E20003B68DB7919467B695B0001FA03F31A43DF
:100E30007B68DA607B6901337B617B690F2B85D925
:100E40001C37BD465DF8047B704700BF80B485B099
:100E500000AF78600B467B8013467B700023FB60FD
:100E60000023BB607B787A8802F0070292009340EF
:100E7000FB607B88DB089BB218467B88DB089BB253
:100E80001A467B68083253F822207B8803F0070358
:100E90009B0019460F238B40DB4302EA03017B686A
:100EA00000F1080243F822107B88DB089BB21A4647
:100EB0007B68083253F82220FB681343BB607B88B1
:100EC000DB089BB21A467B680832B96843F82210E7
:100ED0001437BD465DF8047B704700BF80B483B013
:100EE00000AF7860044B7A68D2B21A700C37BD46F6
:100EF0005DF8047B704700BF003C024080B485B0C1
:100F000000AF78600B4B1B68002B02D1094B0A4ADB
:100F10001A60084B1B68FB60064B1A687B68134419
:100F2000044A1360FB6818461437BD465DF8047B1D
:100F3000704700BFA4080020E808002080B584B0F6
:100F400002AFFFF763FB0120FFF788FBFFF798FB79
:100F50000346FB71FB79012B26D1072300934FF445
:100F6000800008214FF4A8720223FFF7B1FB012093
:100F7000FFF7CCFB00BF3920FFF72EFD0346002B07
:100F8000F9D00520FFF7AAFF0020FFF7EBFB4FF495
:100F9000A050FFF703FC4FF48050FFF71BFC02202A
:100FA000FFF7C4FB012300E0002318460837BD46C5
:100FB00080BD00BF80B586B000AF02200121FFF7E1
:100FC000CFFC10200121FFF7E9FC19480621072278
:100FD000FFF73CFF164807210722FFF737FFC02322
:100FE0003B6102233B7502237B750023BB75012304
:100FF000FB7507F110030E481946FFF799FE4FF4F1
:1010000016533B600023BB810C237B8100233B8173
:101010000023FB800023BB803B4606481946FFF7B0
:1010200047F904480121FFF7FFF91837BD4680BD95
:10103000000402400010014080B582B000AF0346BA
:10104000FB7100BF07488021FFF720FA0346002B01
:10105000F8D0FB799BB203481946FFF705FA083729
:10106000BD4680BD0010014080B582B000AF786001
:1010700006E07B685A1C7A601B781846FFF7DCFF95
:101080007B681B78002BF4D10837BD4680BD00BFBC
:101090000EB4F0B59CB021AB0F4953F8042B01936B
:1010A00005466FF00044086802954FF402774FF64A
:1010B000FF7602A90695ADF8147004940794ADF874
:1010C000166000F00BF8029B00221A701CB0BDE8FD
:1010D000F04003B0704700BF500400202DE9F04FEE
:1010E000C1B089460A920E93089002F025FA03686F
:1010F0001793184603F0CCF8B9F80C3018901A067C
:1011000004D5D9F81030002B01F08C80002330AFCB
:10111000139325932493169319930B932397149366
:1011200015933C464E460A9D2B78002B00F0A98073
:10113000252B02D1A5E0252B03D015F8013F002B6C
:10114000F9D10A9BEB1A73B1249A25990A98206069
:1011500001321944072A63602591249272DC083415
:101160000B9A1A440B922B78002B00F0B5870023C2
:10117000691C6D788DF86F301A460C9307934FF009
:10118000FF3A4B1CA5F12001582900F2D983DFE872
:1011900011F07002D703D7037403D703D703D70323
:1011A000D703D703D703F0020D02D703F4011102CE
:1011B000D7037B03BA02BA02BA02BA02BA02BA026F
:1011C000BA02BA02BA02D703D703D703D703D703A9
:1011D000D703D703D703D703D703C9028B03D7039A
:1011E0008B03D703D703D703D7036D03D703D703E5
:1011F0000503D703D703D703D703D7032303D703A5
:10120000D7033D03D703D703D703D703D703D703A8
:10121000D703D703D703D70358032C028B038B03C1
:101220008B03FE022C02D703D703E602D7037E020C
:10123000FB01C0037702D7039202D7037A00D703DA
:10124000D7034A0208980793314623AA03F04EF8C1
:1012500050B93C46079B83E70898314623AA03F020
:1012600045F8002800F08581B146B9F80C3013F03C
:10127000400F0B9B18BF4FF0FF33184641B0BDE83D
:10128000F08F0A9D6FE70A93079B980640F1AD82A5
:101290000E9B03F1070929F0070303F10802D3E9C4
:1012A00000890E9201234FF0000C8DF86FC0CDF82D
:1012B00044A0BAF1000F03DB079A22F080020792E4
:1012C00058EA090240F04C83BAF1000F00F0518453
:1012D000012B00F04F83022B00F0908439464FEA37
:1012E000D80242EA49724FEAD90008F00703814662
:1012F0009046303358EA090201F8013DEFD1079AD0
:101300001091D20700F144857B1A0D930D9A9245F6
:101310005346B8BF1346099300231293BCF1000F44
:1013200002D0099B01330993079B13F002030F932B
:1013300002D0099B02330993079B13F0840940F004
:101340000C830C9B099AC2EB0308B8F1000F40F321
:101350000483B8F1100F2599249ADFF844A529DDFC
:1013600053464FF0100BC246A8461D4606E0AAF1B0
:10137000100ABAF1100F04F1080417DD0132103120
:10138000072A2591249284E82008F0DD0898314648
:1013900023AA02F0ABFF00287FF466AFAAF1100A7F
:1013A000BAF1100F2599249A3C46E7DC2B464546B6
:1013B000D0469A46013208EB010B072ACDF894B0CB
:1013C0002492C4F800A0C4F8048000F37B849DF844
:1013D0006FC00834BCF1000F0FD0249B01330BF118
:1013E000010B0DF16F010122072BCDF894B024936E
:1013F00084E8060000F3DA8308340F9B73B1249B62
:1014000001330BF1020B1CA90222072BCDF894B07B
:10141000249384E8060000F3D5830834B9F1800FE3
:1014200000F01183119B0D9AC2EB030ABAF1000F71
:101430003CDDBAF1100F249ADFF868942BDD4946A1
:101440005B46A9464FF01008DDF820B00D4606E0D7
:10145000AAF1100ABAF1100F04F1080417DD0132E5
:101460001033072A2593249284E82001F0DD5846A2
:10147000314623AA02F03AFF00287FF4F5AEAAF124
:10148000100ABAF1100F259B249A3C46E7DC9B46D4
:101490002B464D4699460132D344072ACDF894B0E5
:1014A000249284E8000600F375830834079BD9056D
:1014B00000F16C82249B0D99109A226001338B44B9
:1014C000072BCDF894B06160249300F34683083471
:1014D000079B5A0741D50C9B099A9D1A002D3CDDAC
:1014E000102D249BDFF8B8A323DD4FF010085A46D7
:1014F000DDF8209004E0103D102D04F1080417DD04
:1015000001331032072B25922493C4F800A0C4F8AD
:101510000480F0DD4846314623AA02F0E7FE0028A9
:101520007FF4A2AE103D102D259A249B3C46E7DCAB
:1015300093460133AB44072BCDF894B02493C4F801
:1015400000A0656009DD0898314623AA02F0CEFEAE
:1015500000287FF489AEDDF894B00B9B099A0C99B2
:101560008A42ACBF9B185B180B93BBF1000F7FF452
:1015700073AE002324933C46D5E5194607981D78A1
:1015800040F004000790FCE50A93079B13F020034A
:1015900000F00E810E9B03F1070929F0070303F108
:1015A0000802D3E900890E9200237CE61D781946D3
:1015B0002B22E6E51D782A2D03F1010100F0AD870D
:1015C000A5F1300009280B464FF0000A3FF6DAADCE
:1015D00013F8015B0AEB8A0A00EB4A0AA5F1300016
:1015E0000928F5D94AEAEA7ACCE50A93079B8DF8EF
:1015F0006F209B0640F1A1800E9B03F1070929F0A3
:101600000709D9E9002309F108010E91904699468E
:10161000002A73F10003C0F20B849DF86FC0CDF86F
:1016200044A0012345E60A939B4B1693079B8DF834
:101630006F209B0640F1F3800E9B03F1070929F010
:101640000703D3E9008903F108020E92079BD9072B
:1016500040F1F58058EA090300F0F180079A8DF80F
:101660007150302342F002028DF87030079202234D
:1016700019E61D781946002A7FF483AD202280E503
:10168000079941F0200107911D78194679E50A93E1
:10169000079B8DF86F209A0640F1A1840B990E9A52
:1016A0004FEAE179136808468846043249460E92AB
:1016B000C3E9000137E50E9A0A93136810934FF0BF
:1016C000000B8DF86FB002F10409002B00F03B868F
:1016D000BAF1000F1098C0F2E9855946524602F05F
:1016E000BDF9002800F06C86109BCDF844B0C31AF9
:1016F0000D93CDF8389023EAE3730993CDF848B001
:101700009DF86FC00AE6A5F13000002113F8015BD7
:1017100001EB810100EB4101A5F130000928F5D969
:101720000C912FE50A93079B8DF86F2043F010036F
:101730000793079B9B063FF55FAF079BD80600F119
:101740006883079B590640F164830E99B1F90080C4
:1017500004314FEAE87942464B460E9158E71D782E
:1017600007996C2D00F0CB8441F0100107911946C8
:1017700007E50E9D29680C9108460028294601F1CD
:101780000401C0F2B5840E911D781946F9E4079959
:1017900041F0400107911D781946F2E40A93079B36
:1017A00043F010030793079B13F020037FF4F2AE7E
:1017B000079A12F0100240F01983079B13F04003C0
:1017C00000F014830E9913460A460432B1F80080E3
:1017D0000E924FF0000966E50A93079B43F0100351
:1017E0000793079B98063FF553AD079BD90600F179
:1017F0000683079B5A0640F102830E9AB2F80080D6
:1018000004324FF0000901230E924CE50A93234B5A
:101810001693079B8DF86F209B063FF50DAF079B36
:10182000D80640F1CD830E9A13461B689846079B55
:101830000432D9070E924FF000093FF50BAF022397
:1018400031E50E990A930A688DF898200023012249
:1018500004319C4609920E918DF86F3026ABCDF87D
:1018600044C0CDF848C00D9210935DE5079941F052
:10187000080107911D78194683E4079941F0010199
:1018800007911D7819467CE4079941F08001079182
:101890001D78194675E400BFB05A00089C5A00082C
:1018A0007C5A0008D05A00080A930E9B8DF86F20CE
:1018B00003F1070929F0070303F108020E921A68E1
:1018C00014925B6815931599149802F0A3FC0128F3
:1018D000D3461498159940F059830022002303F051
:1018E000AFFD002840F064859DF86FC0079BBE4A9D
:1018F000DFF800E323F08003079313460321002061
:10190000472DD8BF73460991119010930D911290F5
:1019100004E50E9807990A93302203688DF8702029
:101920000246782541F0020104329846AF4B1693E7
:1019300007910E924FF000098DF871500223B2E426
:101940000A938DF86F20002D00F0C683002301223A
:101950009C4609928DF898507EE7DDF894B039E501
:10196000012B7FF4B8ACB9F1000F08BFB8F10A0F32
:1019700080F01C820DF5807B08F130080BF8418D5A
:10198000CBEB07030D93CDF840B0BFE4652D40F3DA
:10199000A080149815990022002303F047FD002829
:1019A00000F04581249B924A226001330BF1010B28
:1019B0000122072BCDF894B02493626000F33483A6
:1019C00008341D9B139A934203DB079BDA077FF5CC
:1019D0007FAD249B1899179A226001338B44072B03
:1019E000CDF894B06160249300F390830834139B86
:1019F0005D1E002D7FF76CAD102D249BDFF8F89154
:101A000040F3BA814FF010085A46DDF820A004E0F8
:101A10000834103D102D40F3AE8101331032072BF6
:101A200025922493C4F80090C4F80480F0DD504659
:101A3000314623AA02F05AFC00287FF415AC259AFF
:101A4000249B3C46E5E70C9B099AC2EB030ABAF1DA
:101A5000000F7FF7E7ACBAF1100F249ADFF89891E6
:101A60002BDD49465B46A9464FF01008DDF820B053
:101A70000D4606E0AAF1100ABAF1100F04F10804AD
:101A800017DD01321033072A2593249284E82001C0
:101A9000F0DD5846314623AA02F028FC00287FF4E6
:101AA000E3ABAAF1100ABAF1100F259B249A3C4629
:101AB000E7DC9B462B464D4699460132D344072A24
:101AC000CDF894B0249284E8000600F352820834E2
:101AD000A8E4139B249D012B40F32082109B2360DC
:101AE00001350BF101030122072D25932495626036
:101AF00000F32682083418996160013503EB010B6D
:101B0000072D179BCDF894B02495236000F3248211
:101B10000834002314981599002203F087FC139BC6
:101B2000002840F0DE80109A013B013501329B44D1
:101B3000072D2495CDF894B02260636000F30E81E8
:101B40000834199A6260013593441FAB072DCDF814
:101B500094B0249523607FF7BAAC0898314623AA45
:101B600002F0C4FB00287FF47FABDDF894B03C4664
:101B7000AEE4002B32D1079BD8072FD50DF5807B23
:101B800030230BF8413DCBEB07030D93CDF840B06C
:101B9000FFF7BCBB0898314623AA02F0A7FB002838
:101BA0007FF462ABDDF894B03C467FE408983146A0
:101BB00023AA02F09BFB00287FF456ABDDF894B01B
:101BC0003C461AE40898314623AA02F08FFB00280D
:101BD0007FF44AABDDF894B03C461FE4CDF834A066
:101BE0001097FFF793BB00BF905A0008B05A000847
:101BF000CC5A00088C5A0008D05A00081698BB46E8
:101C00004FEA181308F00F0143EA09734FEA19125B
:101C100098469146435C0BF8013D58EA0903EFD121
:101C20005B46CDF840B0FB1A0D93FFF76FBB1D9DCF
:101C3000002D40F30582139A12998A421346A8BFD9
:101C40000B461D461099002D01EB020A0BDD249B6B
:101C500021600133AB44072BCDF894B06560249329
:101C600000F34D830834129B002DA8BF5B1B002B93
:101C70001D4640F3F580102D249BDFF8F49540F3CA
:101C8000C6815A464FF01008DDF820B004E0083451
:101C9000103D102D40F3BA8101331032072B2592ED
:101CA0002493C4F80090C4F80480F0DD584631460F
:101CB00023AA02F01BFB00287FF4D6AA259A249BB6
:101CC0003C46E5E70898314623AA02F00FFB0028BE
:101CD0007FF4CAAA9DF86FC0DDF894B03C46FFF7C8
:101CE00079BB03F1FF38B8F1000F7FF72AAFB8F1E5
:101CF000100FDFF87C9525DD5B464FF0100ADDF80C
:101D000020B006E0A8F11008B8F1100F04F10804A3
:101D100017DD01351033072D2593249584E800063F
:101D2000F0DD5846314623AA02F0E0FA00287FF49D
:101D30009BAAA8F11008B8F1100F259B249D3C46E2
:101D4000E7DC9B460135C344072DCDF894B02495BC
:101D5000C4F80090C4F804807FF7F2AE08983146CA
:101D600023AA02F0C3FA00287FF47EAADDF894B01B
:101D7000249D3C46E5E693460133AB44072BCDF862
:101D800094B02493C4F8009065607FF7A0ABE4E6BC
:101D9000302B109B3FF447AF013B1A461093BA1A01
:101DA00030230D9201F8013CFFF7B0BABB46CDF8E5
:101DB00024C0404649460A22002303F091FB3032FA
:101DC000404649460BF8012D00230A2203F088FB08
:101DD0008046894658EA0903EBD15B46FB1ADDF8D9
:101DE00024C0CDF840B00D93FFF790BA0E990A6861
:101DF00004310E9190464FF00009FFF754BA0E9946
:101E00000A68043101230E9190464FF00009FFF754
:101E10004ABA0E9A136898464FEAE3791346043398
:101E200042460E93002A4B4673F10003BFF6F5AB12
:101E30004FF02D0CD8F1000869EB49098DF86FC0FF
:101E4000CDF844A00123FFF734BA0898314623AAFD
:101E500002F04CFA00287FF407AADDF894B03C4663
:101E6000109A12991D9B0A449046139A934246DB9E
:101E7000079AD00743D4139AC8EB0A05D31A9D4298
:101E8000A8BF1D46002D0CDD249AC4F80080013245
:101E9000AB44072ACDF894B06560249200F36782C2
:101EA0000834002DACBF5D1B1D46002D7FF710AB25
:101EB000102D249BDFF8B8937FF75EAF4FF010082A
:101EC0005A46DDF820A004E00834103D102D7FF7BD
:101ED00052AF01331032072B25922493C4F800909F
:101EE000C4F80480F0DD5046314623AA02F0FEF922
:101EF00000287FF4B9A9259A249B3C46E5E7249A5B
:101F000018981799216001328344072ACDF894B0BC
:101F10006060249200F30A820834ACE7079BD9077B
:101F20003FF5DCAD109B236001350BF1010B012364
:101F3000072DCDF894B0249563607FF701AE0DE7CF
:101F40000898314623AA02F0D1F900287FF48CA921
:101F5000259B249D3C46CEE50898314623AA02F0F5
:101F6000C5F900287FF480A9DDF894B0249D3C4693
:101F7000CFE50898314623AA02F0B8F900287FF48B
:101F800073A9DDF894B03C46FFF74CBA02F042F971
:101F9000002840F0C7808646B24AB34B119007989C
:101FA0009DF86FC0CDF848E0032120F08000472D58
:101FB000D8BF1A460991079010920D91FFF7AEB95C
:101FC000079B0E9A13F0400F13463FF42EAC0433D8
:101FD000B2F800800E934FF00009FFF737BB079B64
:101FE000DB060BD4079B5D0608D50E9A13680432F6
:101FF0000E92BDF82C201A80FFF795B80E9A136840
:1020000004320E920B9A1A60FFF78DB89346013393
:10201000AB44072BCDF894B02493C4F800906560CE
:102020003FF713AF08341BE70898314623AA02F0A4
:102030005DF900287FF418A9DDF894B03C46C0E4AF
:10204000249B8A4A226001330BF1010B0122072BEA
:10205000CDF894B02493626000F3F48008342DB975
:10206000139B1BB9079BDB077FF532AA249B1898AB
:10207000179A226001330BEB0001072B259160605A
:10208000249300F3F38104F108026D42002D40F324
:10209000FC80102DDFF8D89140F33D811024DDF84D
:1020A000208004E00832103D102D40F334810133CC
:1020B0001031072B25912493C2F800905460F1DD74
:1020C0004046314623AA02F011F900287FF4CCA83B
:1020D0002599249B3A46E6E7259BB146002B3FF421
:1020E000C4A80898314623AA02F000F9FFF7BDB84A
:1020F0000C980E9140420C901946FFF73FBA41F000
:10210000200107915D78591CFFF73BB808983146CC
:1021100023AA02F0EBF800287FF4A6A8DDF894B01B
:102120003C4664E425F02003BAF1FF3F0D9300F034
:102130009680472B05D1BAF1000F14BFD3464FF05C
:10214000010B079B43F480731193159BB3F1000AB5
:10215000149B0993BBBF534603F1004A00232D2370
:10216000662D0F9300F0AC80462D00F0A9800D9BEA
:10217000099A452B0CBF0BF10109D94602201DA974
:102180008DE8010202911EA821A9039053460491F3
:10219000089800F085FA672D109002D0472D40F086
:1021A0009F80079BDB0740F18981109B03EB0908A7
:1021B000099851460022002303F038F9002840F026
:1021C000FD80219B984506D930215A1C2192197017
:1021D000219B9845F9D8109A9B1A13930D9B472B76
:1021E0001D9B00F0DE80652D40F3F880662D129374
:1021F00000F05781139B129A934200F34481079B8E
:10220000D90700F1738122EAE2730D920F9A002A36
:1022100040F0BC800993119B079311929DF86FC009
:10222000FFF77CB80898402101F08AF9C9F800004E
:10223000C9F81000002800F08C814023C9F8143040
:10224000FEF764BF0898314623AA02F04FF8002831
:102250007FF40AA81D9DDDF894B03C46FFE64FF0E0
:10226000060B6EE7985A0008945A0008CC5A0008EA
:10227000D05A00080898314623AA02F037F80028FF
:102280007EF4F2AF2599249B3A46139C54600133A7
:1022900001EB040B072B1099CDF894B02493116037
:1022A0003FF75BAC02F10804FFF712B9CDF844B078
:1022B00001F0EEFFCDF838900D900346FFF71BBA02
:1022C00003201DA98DE8010802911EA821A90390F1
:1022D000099A04915346089800F0E2F9D946109003
:1022E000109B03EB09080D9B462B7FF461AF109BFD
:1022F0001B78302B00F0E4801D9B984458E7089829
:10230000314623AA01F0F2FF00287EF4ADAFDDF8DC
:1023100094B03C46A7E401332944072B259124932C
:10232000C2F800905560A5DC0832AEE70898314647
:1023300023AA01F0DBFF00287EF496AF1D9BDDF899
:1023400094B03C4697E55346062B28BF06230D93D1
:1023500023EAE373DDF840C00993834BCDF838904E
:10236000CDF844C0CDF848C01093FEF7D7BF089809
:10237000314623AA01F0BAFF00287EF475AF1D9BF9
:10238000139ADDF894B0D31A3C468AE50993119B61
:1023900007934FF02D0C00238DF86FC01193FEF7BB
:1023A000C0BFDA1C19DB9B4517DB1293672521E7B9
:1023B0004FF02D0C8DF86FC0FFF798BA43460AE72F
:1023C0002AEAEA731190CDF8389012909DF86FC008
:1023D0000993CDF834A0FEF7A1BF023D013B002BCD
:1023E0001D93BABF5B422D222B22092B8DF87C5006
:1023F0008DF87D2072DD0DF18B0E70465B4A82FBFD
:102400000321DA17C2EBA10202EB8201A3EB410325
:1024100003F13001092A134600F8011DEEDC0246E3
:102420003033D9B202F8011D964540F299800DF182
:102430007E02034601E013F8011B02F8011B7345FD
:10244000F9D123AB1B1A0DF17E0213441FAA9B1A6C
:10245000139A1993012A13440D936BDD0D9B0022EF
:1024600001330D93129223EAE373CFE608983146C5
:1024700023AA01F03BFF00287EF4F6AE1D9D2599AE
:10248000249B3A4601E6129B002BD8BFC3F10208F9
:10249000139BC8BF4FF0010843440D9323EAE37335
:1024A000B4E6002B30DDBBF1000F25D1079BDB0725
:1024B00022D4129A0D9222EAE273A7E6219B8AE6C1
:1024C000099851460022002302F0B0FF00287FF453
:1024D00013AFC9F101031D93984469E630333022EC
:1024E0008DF87F308DF87E2020ABAFE7129B013353
:1024F0000D9323EAE37389E6129B0BF10108434431
:102500000D9323EAE37381E6BBF1000F1BD1079B18
:10251000D80718D401230D9378E60E9DD5F800A0B6
:1025200028460430BAF1000F5D780E90BEF629AE51
:10253000FEF725BE079B13F001038FD112930D9B6D
:1025400023EAE37362E60BF102030D9323EAE373DC
:102550005CE6089A0C2313604FF0FF30FEF78EBE46
:102560000DF17E0372E700BFC45A00086766666615
:1025700002690B69934200F38F802DE9F04F03F15C
:10258000FF3801F1140700F1140B57F828205BF80D
:1025900028304FEA880483B00132B3FBF2F90BEB29
:1025A0000403009407EB040A0193B9F1000F3BD038
:1025B00000263246BC46DE4634465CF8046BDEF844
:1025C0000050B3B2360C03FB094406FB09F606EBD8
:1025D0001446A3B2D31AB4B213FA85F3C4EB15446C
:1025E00004EB23449BB243EA0443E2454FEA24420E
:1025F0004EF8043B4FEA1644DFD2009B5BF80330F1
:1026000093B9019C231F9B450CD254F8043C4BB951
:10261000A4F1080302E01A68043B1AB99B4508F1CB
:10262000FF38F8D3C0F81080044601F009FD0028F7
:102630002EDB09F101095D46002357F8041B2868C9
:102640008AB29A1A090C12FA80F2C1EB104303EB1A
:10265000224391B241EA0341BA4545F8041B4FEACF
:102660002343EAD25BF828200BEB880382B91A1FB8
:1026700093450BD253F8042C42B9083B02E01A6888
:10268000043B1AB99B4508F1FF38F8D3C4F8108011
:10269000484603B0BDE8F08F0020704700000000FE
:1026A0002DE9F04F016C97B00446239DCDE902233C
:1026B00041B1426C4A60012393408B6001F0DCFA27
:1026C00000232364DDE90223002B994636DB002337
:1026D0002B60A54B1A4609EA0303934217D0DDE9A4
:1026E0000267002230463946002302F09FFE8046F2
:1026F00000282BD0229A01231360249B002B00F08A
:10270000CB809A481860013817B0BDE8F08F229A44
:1027100042F20F731360029B002B00F0A6809448D6
:10272000249B002BF0D0C378002B00F0B78000F181
:102730000803249A136017B0BDE8F08F039A0123B1
:1027400022F000492B60CDF80C90C2E715AA14AB1B
:102750008DE80C00204632463B4601F0FFFC5FEA64
:102760001955834640F08A80DDF85080159D6FF43E
:10277000826345449D42C0F297827E4A521B09FA09
:1027800002F9029A05F2124322FA03F049EA000024
:1027900002F06EFB0123013DA1F1F8710D930022BF
:1027A000754B02F027FA6AA3D3E9002302F0D6FBA7
:1027B00069A3D3E9002302F01FFA064628460F4614
:1027C00002F066FB66A3D3E9002302F0C7FB0246D2
:1027D0000B463046394602F00FFA06460F4602F025
:1027E00057FE3946049000223046002302F028FEAE
:1027F000002840F0A681049B162B00F29F81049ACA
:102800005E4B03EBC203D3E90001DDE9022302F0D2
:1028100035FE002800F04E82049B013B0493002308
:102820000B93C5EB0805B5F1010A00F1A181002366
:102830000593049B002BC0F292819A440A930023D3
:102840000893209B092B2BD8052B40F37086043B63
:1028500020930025209B023B032B00F24E86DFE8ED
:1028600013F0CC03BE03B2026306414B444AC9F3E2
:102870001300002814BF1846104651E7C7F313038E
:1028800043F07F51CDF834803046A5F2FF3541F456
:102890004011DDF8508082E73A4835E7C31C48E72D
:1028A000002161642046209101F0C0F94FF0FF3310
:1028B0000693209A0C930123079021922064099398
:1028C000159B002BC0F2D280049A0E2A00F3CE8012
:1028D0002A4B03EBC203D3E90089219B002BC0F2F2
:1028E0008F83DDE9026742464B463046394602F0A7
:1028F0005FFC02F0CDFD824602F0CAFA42464B462A
:1029000002F02CFB0B4602463946304602F072F9C3
:10291000079D0AF130032B70069B012B06460F46DC
:1029200005F1010562D00022174B02F017FB0022CF
:10293000002306460F4602F079FD002840F0838010
:10294000CDF808B00594DDF81CB0069C29E000BF66
:1029500061436F63A787D23FB3C8608B288AC63FA5
:10296000FB799F501344D33F0000F07FCD5A0008FD
:10297000EC5A00080EFCFFFF0000F83F005B000867
:10298000E05A0008CC5A00080000244002F0E6FAA1
:102990000022002306460F4602F048FD002840F0C2
:1029A000DE8342464B463046394602F001FC02F0D7
:1029B0006FFD824602F06CFA42464B4602F0CEFAB8
:1029C00002460B463046394602F014F90AF1300E41
:1029D00005F801EBCBEB050E744506460F464FF0AC
:1029E0000002B54BD2D1DDF808B0059C32463B461B
:1029F0003046394602F000F906460F464046494641
:102A000032463B4602F01CFD48B940464946324634
:102A10003B4602F00BFDB0B11AF0010F13D015F8D0
:102A2000018C07996B1E04E08B4200F0408413F880
:102A3000018DB8F1390F03F101051A46F4D008F100
:102A40000103DBB213702046594601F015F900224C
:102A5000049B2A70229A01331360249B002B00F000
:102A6000458307981D6017B0BDE8F08F099A002ACA
:102A700000F08480209A012A40F30483069B5F1EA5
:102A8000089BBB42C0F2A983DF1B069B002BC0F250
:102A90009C84059D069B059A20461A4401210592B7
:102AA0009A4401F083F9064665B1BAF1000F09DDD9
:102AB000AA45059A5346A8BF2B46D21A0592ED1A8D
:102AC000C3EB0A0A089B002B1ADD099B002B00F0C0
:102AD0007D83002F10DD31463A46204601F00AFA88
:102AE00006465A463146204601F06AF95946804664
:102AF000204601F0C1F8C346089BDA1B40F0A282D1
:102B00002046012101F052F90A9B002B804639DD55
:102B100001461A46204601F0EDF9209B012B804624
:102B200040F396824FF00009D8F8103008EB830389
:102B3000186901F0EDF8C0F120002DE001230B939E
:102B40006FE6049802F0A4F932463B4602F06EFCB0
:102B500000287FF450AE049B013B04934BE6059A9A
:102B6000049BD21A5B420893002305920A9368E6FD
:102B7000CAF1000305934FF0000A5AE6089F059D2D
:102B8000099E91E7209B012B40F3B3824FF000098F
:102B90000A9B002BC8D10120504410F01F0000F008
:102BA0008180C0F12003042B40F3B884C0F11C00E5
:102BB000059B0344059305448244059B002B05DDDA
:102BC00059461A46204601F0E5F98346BAF1000F4E
:102BD00005DD41465246204601F0DCF980460B9B5C
:102BE000002B40F06882069B002B40F39582099BE6
:102BF000002B71D1DDF81C90069F4D4602E001F0DC
:102C000045F8834641465846FFF7B2FC00F1300CC8
:102C100005F801CBC9EB0503BB42204659464FF0EE
:102C20000A024FF00003EADB079B069A012AACBFB9
:102C30009B1801331D464FF0000A594601222046D9
:102C4000CDF808C001F0A6F94146834601F0F8F935
:102C50000028DDF808C040F3F68215F8012C07992A
:102C60006B1E04E08B4200F0738213F8012D392AA9
:102C700003F10105F6D001321A704146204600F0FA
:102C8000FBFF002E3FF4DFAEBAF1000F05D0B245D6
:102C900003D05146204600F0EFFF3146204600F0B9
:102CA000EBFFD0E61C2083E7044B029A5B1B02FA81
:102CB00003F06DE50B90B4E500002440EEFBFFFF50
:102CC0003146002320460A2200F0E0FF0C9B002B37
:102CD000064640F30C840693002D05DD31462A4656
:102CE000204601F057F90646B9F1000F40F0E9829D
:102CF000B146069B079A013BD3180893029B03F049
:102D000001030993174641465846FFF731FC314607
:102D10000546584601F094F94A4682464146204607
:102D200001F0B2F9C268034605F1300C002A40F008
:102D3000B88119465846CDF818C0059301F080F9BE
:102D4000059B02901946204600F096FF029ADDF896
:102D500018C02AB9209B1BB9099B002B00F0A78340
:102D6000BAF1000FC0F2518205D1209B1BB9099B1B
:102D7000002B00F04A82002A00F3B782089B87F8F4
:102D800000C007F1010A9F42554600F0BA82594639
:102D90000A220023204600F079FF4E458346314643
:102DA00020464FF00A024FF0000300F0748100F05B
:102DB0006DFF494606460A222046002300F066FFC2
:102DC000574681469FE701230993219B002B40F33F
:102DD00013821F461E460C9306930021172F616431
:102DE0000AD9012204235B0003F114008742114633
:102DF00002F10102F7D26164204600F017FF0E2EA7
:102E0000079020643FF65CAD002D3FF459ADDDE93D
:102E1000022304990029CDE90E2340F32182B74B08
:102E200001F00F020D1103EBC203E906D3E90067BD
:102E300040F1DB81B24BDDE90E01D3E9082302F05A
:102E4000B7F9CDE9020105F00F054FF003088DB188
:102E5000DFF8AC9230463946EA0705D5D9E90023B8
:102E600008F1010802F07AF86D1009F10809F3D1B0
:102E700006460F46DDE9020132463B4602F098F96C
:102E8000CDE902010B9B43B1DDE9020100229D4B1C
:102E900002F0D6FA002840F0AC82404601F0F8FF7C
:102EA000DDE9022302F05AF8974B002201F0A4FE5C
:102EB000069B0646A1F15077002B00F06281049B2F
:102EC000DDF818901293099B002B00F021828B4BA8
:102ED0008E4903EBC90353E90223002002F068F98D
:102EE00032463B4601F086FEDDE90267CDE910017E
:102EF0003946304602F0CCFA054601F0C9FF3035BC
:102F000002460B463046394601F074FE5FFA85F8FA
:102F1000079DDDE9102385F8008006460F46013540
:102F200002F08EFA002840F0B28232463B46002082
:102F3000744901F05FFE02460B46DDE9100102F024
:102F40009DFA002840F0AC82B9F1010F40F33881BE
:102F5000079BCDF84CA0CDF808B09944DDE910AB43
:102F6000A0460DE00020674901F044FE52465B4652
:102F700002F066FA002840F08E824D4500F01B8179
:102F8000504659460022624B01F0E8FF0022604B98
:102F900082468B463046394601F0E0FF0F46064632
:102FA00002F076FA044601F073FF02460B46304603
:102FB000394601F01FFE3034E4B252465B4605F854
:102FC000014B06460F4602F03BFA32463B460028CC
:102FD000C8D0129BDDF808B00493444633E50023C3
:102FE0000993219B049A13440C930133002B0693FD
:102FF00040F30981069E3746EFE600230993E4E695
:10300000069B002B3FF76DAC40F0628240460022E9
:10301000404B494601F0A2FFDDE9022302F024FA09
:10302000DDF818804646002800F08A80219B079D25
:10303000DB4304934146204600F01EFE002E7FF441
:103040002CAE00E55946204600F054FF834657E574
:10305000029B002B7FF466AD039BC3F31303002B8D
:103060007FF494AD039B23F000473F0D3F05002FF5
:1030700000F01A82059B013305930AF1010A4FF013
:10308000010985E50D9A002A00F0A58103F233437A
:10309000089F059DFFE400F0F9FD5746064681466E
:1030A00031E601462046CDF808C000F0E5FD0122DA
:1030B000DDF808C054E65846414600F0C1FF00283C
:1030C000BFF691AD049F5946002320460A22013FD6
:1030D000049700F0DBFD099B8346002B7FF4F0ADE5
:1030E0000C9B002B40F3F881069383E50798FFF7CC
:1030F0000BBB029B002B7FF449ADADE7005B0008E2
:10310000C85B00080000F03F00001C400000E03FEA
:103110000000244000001440209B022B7FF767AD85
:10312000069B002B82D141460522204600F0AEFDD1
:1031300080464146584600F083FF00287FF776AF6F
:10314000049A07993123013204920B704D1C71E7E8
:10315000049A01320492079A312313708DE5DDF849
:1031600008B0059C6FE4404601F092FEDDE90223C1
:1031700001F0F4FE0022BC4B01F03EFD0646A1F139
:103180005077DDE902010022B84B01F033FD3246F1
:103190003B46CDE9020102F071F98046002840F07B
:1031A000B380324607F10043DDE9020102F048F93D
:1031B00030B146463AE7DDF84CA0DDF808B04446A9
:1031C000DDE90E23CDE90223FFF77ABB5946089AC1
:1031D000204600F08FFE834692E4089B0A9A0897E7
:1031E000FB1A1A440A9200274FE4DDE90E234FF040
:1031F0000208CDE902232AE6012621960C960696BE
:1032000000216164F8E51E46FAE7002A15DD5946FB
:1032100001222046CDF808C000F0BCFE414683469E
:1032200000F00EFF0028DDF808C040F34A81BCF131
:10323000390F00F006810CF1010CB24687F800C08E
:103240007D1C4E4619E504D11CF0010F01D004E5A8
:10325000154615F8013C302B05F1FF32F8D00CE58E
:10326000049B5D42002D00F0BD80814B05F00F02F4
:1032700003EBC203D3E90023DDE90E0101F06EFE8A
:103280002D11CDE9020100F02C817A4E4FF0020899
:10329000EB0705D5D6E9002308F1010801F05EFE31
:1032A0006D1006F10806F3D1CDE90201EAE5049AB2
:1032B00001320492079A3023137031231370FFF701
:1032C000C2BB7168204600F0B1FC33699A1C054608
:1032D000920006F10C010C3000F00AFC2046294651
:1032E000012200F057FE814603E5BCF1390F00F0E2
:1032F000A8800CF1010CB24687F800C07D1C4E4638
:10330000BBE4B2464E4698E44FF00008464617E745
:10331000574909F1FF3301EBC30132461393D1E959
:1033200000013B4601F01AFEDDE90267CDE910011C
:103330003946304602F0ACF8054601F0A9FD0246D8
:103340000B463046394601F055FC079A3035B9F145
:10335000010F157006460F4602F1010523D0079BA9
:10336000CDF808A04B445E469A46AB460022424B3D
:1033700001F0F4FD8946804602F08AF8074601F024
:1033800087FD303702460B464046494601F032FC85
:103390000BF8017BD345E9D1139BDDF808A0B346B8
:1033A0000F4606461D440022344BDDE9100101F0B2
:1033B00023FC32463B4602F043F8002847D0129BDC
:1033C000049315F8018CFFF72CBB059B069A9D1AF8
:1033D0000023FFF760BB149B089F059DC3F13603D4
:1033E000FFF759BBDDE90E234FF00208CDE90223B8
:1033F00048E5069B002B3FF4B6AE0C9D002D7FF7F1
:10340000DFAE00221C4BDDE9020101F0A7FD0646FC
:103410000F4608F10100CDE9026701F039FD0246CF
:103420000B463046394601F099FD0F4B002201F062
:10343000E3FB049B013B0646A1F150771293A9469A
:1034400041E53922B2463A704E467D1C07E4DDE97B
:1034500010230020094901F0CDFB32463B4602F023
:103460000DF870B9ACE600BF00001C40000014402D
:10347000005B0008C85B0008000024400000E03F3B
:10348000154615F8013C302B05F1FF32F8D0129BA0
:103490000493FFF7D8BA4346DDF808B0A0461C46AF
:1034A000129B0493FFF7BDBAB946FFF771BBBCF19D
:1034B000390FC6D0BAF1000F7FF7BFAE05F1310C5E
:1034C000BBE67FF4BAAE1CF0010F3FF4B6AEAEE639
:1034D0004FF000084646A9E5209B022B04DC0C9B1C
:1034E00002E64FF00208CDE40C9B069318E6209B01
:1034F000022BF9DC0C9BFFF7EEBB00256564294627
:10350000204600F093FB4FF0FF3306930C9301230A
:103510000790219520640993FFF7D2B93FF44DAB92
:10352000C0F13C00FFF744BB0123099359E5012595
:10353000FFF790B9AFF300800048704754040020B3
:103540002DE9F04F01F10B05162D83B0064627D962
:1035500035F0070500F1B680A94200F2B38000F013
:1035600061FBB5F5FC7F22D2C24FE80807EBC00330
:10357000DC689C4200F0C9816368E168A56823F0BB
:103580000303234430465A68E96042F001028D602B
:103590005A6000F049FB0834204603B0BDE8F08FC4
:1035A000102900F28F8000F03DFB1025DCE7680A4F
:1035B00000F08F80042800F25481A80938304100BF
:1035C000AC4F07EB8101CC68A14206D10CE0002A88
:1035D00080F28280E468A14206D0636823F003038E
:1035E0005A1B0F2AF3DD01380130A2493C6901F171
:1035F000080E744500F07E81636823F003035A1BB4
:103600000F2A00F36481002AC1F814E0C1F810E029
:1036100073DAB3F5007F80F03981DB0801EBC30872
:103620004FEAA30C4A68D8F80890C4F80890012320
:1036300003FA0CF31343C4F80C804B60C8F808403D
:10364000C9F80C408210012494409C4262D8234265
:1036500006D120F003006400234200F10400FAD0F8
:1036600007EBC008C4468146DCF80C309C4507D106
:1036700042E1002980F25281DB689C4500F03C81E8
:103680005A6822F00302511B0F29F2DD1C46D3F8C1
:103690000CC054F8088F5A1945F0010941F0010592
:1036A000C3F804903046C8F80CC0CCF808807A61A2
:1036B0003A61C2F80CE0C2F808E05560515000F0E1
:1036C000B3FA69E700240C232046336003B0BDE859
:1036D000F08F7E213F2073E72344E1685A68A56894
:1036E00042F00102E96030468D605A6000F09CFAB9
:1036F0000834204603B0BDE8F08F234430465A68B2
:1037000042F001025A6000F08FFA0834204603B0FC
:10371000BDE8F08FBC68636823F00308454504D812
:10372000C5EB08030F2B00F38C80534BDFF858A137
:103730001A68DAF8003001332A4404EB080B00F071
:10374000508102F580520F3222F47F6222F00F0284
:1037500011463046019200F089FDB0F1FF3F8146ED
:10376000019A00F0F580834500F2EF80434B196821
:10377000CB451144196000F03D81DAF80000DFF814
:1037800008E101301BBFCBEB090B5944CEF8009088
:10379000196019F0070100F00781C1F10800C1F5B7
:1037A0008051814408314A44C2F30B02C2EB010A42
:1037B00051463046019300F059FD431C019B00F037
:1037C0002781C9EB0002524442F001021968C7F890
:1037D00008905144BC42C9F804201960DFF89CA04D
:1037E00016D0B8F10F0F40F2E2806268A8F10C0326
:1037F00023F00703E01802F001024FF0050E1A4310
:103800000F2B6260C0F804E0C0F808E000F2048109
:103810001B4BBC681A68914288BF1960194B1A6823
:103820009142626888BF196022F003029542A2EBC0
:10383000050301D80F2B04DC304600F0F5F9002415
:10384000AAE6621943F0010345F0010565603046C0
:10385000BA60536000F0E8F90834204603B0BDE8D0
:10386000F08F142869D9542800F29780280B6E3005
:103870004100A5E68C040020B0080020B408002018
:10388000AC080020A8080020980800205A0A042A42
:1038900056D9142A00F2A7805B324FEA420C07EB9C
:1038A0008C0CDFF8B481DCF80810614500F08580ED
:1038B0004A6822F00302934202D289688C45F7D10C
:1038C000CA687B68E260A1609460CC60BAE6631964
:1038D00042F0010745F00105656030464B610B6120
:1038E000C3F80CE0C3F808E05F609A50083400F0B9
:1038F0009BF951E64B68A5E609F1010919F0030FA0
:103900000CF1080C7FF4B0AE2BE004F108036469FD
:10391000A34208BF02303FF468AE2DE61A441C46AD
:103920005168DB6854F8085F41F00101516030468E
:10393000EB609D6000F078F92EE65B3041003FE6D9
:103940009A0938324FEA420CA9E7BC423FF40EAF65
:10395000BC68626822F0030268E7D8F800809845E6
:1039600077D110F0030FA8F1080300F1FF30F4D174
:103970007B6823EA04037B6064009C423FF6CAAE86
:10398000002C3FF4C7AE234248467FF469AE640082
:10399000234200F10400FAD062E6B0F5AA7F18D8FD
:1039A000E80B773041000BE64FF48051FBE6012332
:1039B000C9F804304C46002238E7D8F80430921099
:1039C0004FF0010C0CFA02F21343C8F804300A4617
:1039D00078E740F25453984217D8A80C7C30410045
:1039E000EEE51032B4E6542A1ED81A0B6E324FEAB6
:1039F000420C54E7CBF30B0000287FF4BEAE4244E8
:103A0000BB6842F001025A6002E7FC217E20D7E544
:103A100001224FF0000AD9E604F10801304600F017
:103A200065FDDAF80010F3E6B2F5AA7F04D8DA0BE8
:103A300077324FEA420C32E740F254518A4204D8BE
:103A40009A0C7C324FEA420C29E74FF0FC0C7E22A4
:103A500025E77B6890E700BF8C040020830770B4E3
:103A6000C9B240D0541E002A3FD003788B4218BF01
:103A7000431C06D11DE0F4B102788A4204F1FF3400
:103A800017D013F0030F184603F10103F3D1032CF1
:103A900014D884B103788B420BD00519431C02E083
:103AA00002788A4205D0AB42184603F10103F7D1F0
:103AB000002070BC7047204670BC704741EA012668
:103AC000024646EA06461046043203687340A3F1F4
:103AD000013525EA030313F0803FDAD1043C032CBF
:103AE0001046F0D8D5E71446D1E71046E1E700BF0D
:103AF000844641EA000313F003036DD1403A41D3F9
:103B000051F8043B40F8043B51F8043B40F8043BB7
:103B100051F8043B40F8043B51F8043B40F8043BA7
:103B200051F8043B40F8043B51F8043B40F8043B97
:103B300051F8043B40F8043B51F8043B40F8043B87
:103B400051F8043B40F8043B51F8043B40F8043B77
:103B500051F8043B40F8043B51F8043B40F8043B67
:103B600051F8043B40F8043B51F8043B40F8043B57
:103B700051F8043B40F8043B51F8043B40F8043B47
:103B8000403ABDD2303211D351F8043B40F8043BE7
:103B900051F8043B40F8043B51F8043B40F8043B27
:103BA00051F8043B40F8043B103AEDD20C3205D3F7
:103BB00051F8043B40F8043B043AF9D2043208D0EF
:103BC000D2071CBF11F8013B00F8013B01D30B8861
:103BD00003806046704700BF082A13D38B078DD03F
:103BE00010F003038AD0C3F10403D21ADB071CBF11
:103BF00011F8013B00F8013B80D331F8023B20F87B
:103C0000023B7BE7043AD9D3013A11F8013B00F8B3
:103C1000013BF9D20B7803704B7843708B7883703B
:103C200060467047704700BF704700BFC36C70B5F7
:103C300005460C464BB153F8240080B1026843F8A6
:103C4000242000230361C36070BD0421212200F001
:103C5000CFFBE86403460028EDD1002070BD0121B0
:103C600001FA04F6721D2846920000F0C1FB0028FC
:103C7000F3D044608660E4E731B1C36C4A6853F81E
:103C80002200086043F82210704700BFF0B50C69AD
:103C900083B00D46064601F1140E0027DEF8001031
:103CA00088B2090C02FB003302FB01F101EB134166
:103CB00001379BB203EB0143BC424EF8043B4FEA91
:103CC0001143EBDC3BB1AA68944207DA05EB8402AE
:103CD000013453612C61284603B0F0BD696801933B
:103CE00001313046FFF7A2FF2A69023205F10C01CB
:103CF000074692000C30FFF7FBFEF26C6968019BEF
:103D000052F82100286042F821503D46DEE700BF0E
:103D1000030C1B04B3B90004102310F07F4F04BF41
:103D20000002083310F0704F04BF0001043310F09C
:103D3000404F04BF80000233002807DB420003D459
:103D4000202070470023E8E7581C7047184670474A
:103D5000036813F0070207D0D90720D49A0720D4AC
:103D60009B0803600220704799B209B91B0C10220E
:103D700013F0FF0F04BF1B0A0832190704BF1B0909
:103D80000432990704BF9B080232D90704D45B08A8
:103D900001D1202070470132036010467047002097
:103DA00070475B0803600120704700BF10B50C46E8
:103DB0000121FFF73BFF01224461026110BD00BFFA
:103DC0002DE9F04F0F691669B74283B00D461446CE
:103DD000C0F28D8033463E461F46AB68696806EBED
:103DE00007089845C8BF0131FFF720FF00F1140C08
:103DF0000CEB8809CC45009005D26346002143F8BE
:103E0000041B9945FBD804F1140202EB870A05F163
:103E10001403524503EB860E54D2CDF80490994614
:103E200052F8043B1FFA83FBBBF1000F20D00020A7
:103E30004F466646054600E01E4657F8044B30687C
:103E4000A1B283B20BFB0131240C000C4B190BFB0C
:103E5000040000EB134099B2334641EA0041BE45ED
:103E60004FEA104543F8041BE6D8756052F8043C4D
:103E70005FEA134B20D0DCF80030674618464D4609
:103E8000002100E037462C88000C0BFB04000144A5
:103E90009CB23E4644EA014346F8043B786855F834
:103EA000044B83B2240C0BFB043404EB1143AE45EA
:103EB0004FEA1341E6D87B6092450CF1040CAFD871
:103EC000DDF80490B8F1000F0BDD59F8043CA9F1BE
:103ED00004091BB105E059F8043D13B9B8F1010814
:103EE000F9D10098C0F8108003B0BDE8F08F1546F6
:103EF0000C4672E712F003032DE9F0411446074621
:103F00000E462DD1A4101CD0BD6C95B3E3074FF025
:103F1000000806D4641014D02868A8B10546E30749
:103F2000F8D5384631462A46FFF74AFFB6B17268DF
:103F3000FB6C641053F82210316043F8226006468F
:103F4000EAD13046BDE8F08129462A463846FFF7D7
:103F500037FF2860C0F800800546E0E70646D9E74D
:103F60005A1E0B4D002355F82220FFF78FFE064600
:103F7000C8E701213846FFF759FE40F271210122BE
:103F80000023416102610546B8640360BEE700BFDB
:103F9000F05B00082DE9F0470F698B684FEA621962
:103FA0004F447D1C9D420E4614464968804604DD00
:103FB0005B009D4201F10101FADC4046FFF736FE4D
:103FC000B9F1000F00F1140109DD00239E460A46F5
:103FD00001334B4542F804EBFAD101EB830132691E
:103FE00006F1140314F01F0C03EB820E1FD0CCF16A
:103FF000200900221C6804FA0CF414438A4641F894
:10400000044B53F8044B9E4524FA09F2F2D8CAF83F
:10401000042002B1BD1CD8F84C307268013D53F841
:1040200022100561316043F82260BDE8F087043951
:1040300053F8042B41F8042F9E45F9D8EBE700BF55
:1040400002690B69D21A13D19B0014301431194440
:1040500010B4034401E098420CD253F8044D51F8D7
:10406000042D9442F7D009D301205DF8044B70472A
:104070001046704700205DF8044B70474FF0FF304A
:104080005DF8044B704700BF2DE9F0410E46054630
:10409000114630461446FFF7D3FF071E54D04DDBC0
:1040A0004FF0000871682846FFF7C0FD37692369A3
:1040B000C0F80C80143604F1140202EB830C00F1FA
:1040C000140506EB870E002356F8048B52F8044BB8
:1040D00013FA88F3A1B2240C591AC4EB184303EB6A
:1040E000214389B241EA0341944545F8041B4FEA54
:1040F00023433446E8D8B645AC4615D954F8042BCA
:1041000013FA82F1130C03EB214389B241EA034114
:10411000A64545F8041B4FEA2343EFD8F6437644FF
:1041200026F0030504356544043D21B955F8043DE6
:10413000013F002BFAD00761BDE8F08133464FF014
:10414000010826461C46ADE728463946FFF76EFDB6
:10415000012347610361BDE8F08100BF2DE9F04113
:1041600082B001211C46C3F30A571546089EFFF78B
:104170005DFDC4F3130480460FB144F48014019430
:104180001DB302A840F8085DFFF7E2FD002834D116
:104190009DE80C00C8F81420002B14BF0224012451
:1041A000C8F81830C8F81040DFB908EB8403A0F253
:1041B000324030601869FFF7ABFD099BC0EB44103B
:1041C0001860404602B0BDE8F08101A8FFF7C0FDCD
:1041D0000124019BC8F814302030C8F81040002F8B
:1041E000E3D0099BA7F233470744C0F1350037609D
:1041F0001860404602B0BDE8F0819DE80C00C0F1B7
:10420000200103FA01F10A43C3400193C8F81420C6
:10421000C2E700BF10B431F0004408D0114BA1F543
:1042200080129A4208D804205DF8044B704718B9F0
:1042300002205DF8044B704701F1FF41094B01F585
:10424000E0019942EFD9B4F5801F01D20320EBE7DA
:10425000054B9C4201D00020E6E7B0FA80F040090F
:10426000E2E700BFFFFFDF7F0000F07F38B5074CBB
:104270000023054608462360FCF740FE431C00D09F
:1042800038BD2368002BFBD02B6038BDE40800202C
:1042900020F0030110F00300C0F1000051F8043BCE
:1042A00000F1040C4FEACC0C6FF000021CBF22FAA4
:1042B0000CF213434FF0010C4CEA0C2C4CEA0C4C62
:1042C000A3EB0C0222EA030212EACC1204BF51F85B
:1042D000043B0430F4D0C2F1000102EA0102B2FA58
:1042E00082F2C2F11F0200EBD20070472DE9F04FBD
:1042F0009368D2F8008083B09146002B72D00746B5
:104300004FF0000B08688B680D465C46002C45D0CA
:104310009C421E469A4648D3AB8913F4906F2DD029
:104320006E69296906EB4606C1EB000A06EBD676F4
:10433000601C76105044864232463CBF06463246E8
:104340005B0535D511463846FFF7FAF8002839D015
:10435000524629690190FFF7CBFBAA89019B22F401
:10436000906242F08002AA81CAEB060203EB0A00C7
:104370006E612B612860AA602646A24652465946C5
:1043800000F08CF9D9F80820AB6828689B1B5044D2
:10439000141BAB602860C9F808401CB3D8F800B003
:1043A000D8F8044008F10808B0E72646A246E5E739
:1043B000384600F025FA03460028D5D13846296949
:1043C00000F094F80C233B60AB89002243F04003DB
:1043D0004FF0FF30AB81C9F80820C9F8042003B0C2
:1043E000BDE8F08F0020C9F8040003B0BDE8F08FED
:1043F00010B502FB01F1FFF7A3F8044668B150F8CD
:10440000042C22F00302043A242A18D8132A06D8CE
:10441000034600221A605A609A60204610BD0023AD
:104420001B2A036043600FD9242A8360C36005BF41
:104430000361436100F1100300F11803E9E7002173
:1044400000F090F9204610BD00F10803E1E700BF3D
:10445000F8B5234F0C460646FFF7E4FBBB685D68E2
:1044600025F00305291B01F6EF7121F47F6121F08E
:104470000F01A1F58054B4F5805F07DB30460021C1
:10448000FFF7F4FEBB682B44984204D03046FFF798
:10449000CBFB0020F8BD30466142FFF7E7FE01305C
:1044A0000DD0104BBA6819682D1B45F00105304638
:1044B000091B55601960FFF7B7FB0120F8BD3046B6
:1044C0000021FFF7D3FEBA68831A0F2BDEDD064CFE
:1044D0000449246843F00103001B53600860D5E7DA
:1044E0008C040020B40800209808002000294ED039
:1044F0002DE9F0410C468046FFF794FB54F8047C0C
:10450000624927F00102A4F10805AB188E685868CB
:104510009E4220F003005AD0FE0758600BD454F896
:10452000087CED1B01F1080EAC6874453A4467D075
:10453000EF68E760BC601C186468E4070CD4544F53
:104540009C68BC4202447CD0D868E06042F0010321
:1045500084606B60AA5003E042F001036B60AA50D4
:10456000B2F5007F14D2D20801EBC20348689F68FD
:10457000AF609210012404FA02F21043EB6048602D
:104580009D60FD604046BDE8F041FFF74DBB7047C0
:10459000530A042B47D8930903F13804600001EB58
:1045A00080003A498368834243D0596821F003016F
:1045B000914202D99B689842F7D1DA68EA60AB6011
:1045C00040469560DD60BDE8F041FFF72DBBFF0779
:1045D000024407D454F8083CED1A1A44A868EB6862
:1045E000C36098602B4B1B6842F001009A426860E0
:1045F0008D60C7D3284B40461968FFF729FFC1E7F4
:1046000019184968C90709D4D9689B68024442F05F
:104610000100D9608B606860AA50B3E742F00103E3
:104620006B60AA50AEE7142B14D803F15B04600052
:10463000B5E74A68A4100120A04002434A601A4628
:10464000BCE742F001034D610D61EC60AC606B6052
:10465000AA5097E7542B04D8130B03F16E046000A3
:104660009DE7B3F5AA7F04D8D30B03F1770460006C
:1046700095E740F25450834204D8930C03F17C0434
:1046800060008CE7FC207E2489E700BF8C040020BA
:104690009404002094080020B00800208842F0B55F
:1046A0000DD98B1898420AD28118002A54D09A1A30
:1046B00013F8014D01F8014D9342F9D1F0BD0F2AD5
:1046C00048D940EA01039B0747D100F1100401F1EA
:1046D0001003154653F8106C44F8106C53F80C6C2A
:1046E00044F80C6C53F8086C44F8086C103D53F80F
:1046F000046C44F8046C0F2D03F1100304F1100452
:10470000E8D8A2F1100323F00F0302F00F0E1033CC
:10471000BEF1030F1944034421D91E1F0D467446F0
:10472000043C55F8047B46F8047F032CF8D8AEF11E
:10473000040424F0030404342344214402F003025B
:1047400052B1013B0A4411F8014B03F8014F914269
:10475000F9D1F0BD0346F3E7F0BD0346F1E7724639
:10476000EEE700BF70B4840746D0541E002A41D043
:10477000CDB2034602E0621EE4B3144603F8015BC7
:104780009A07F8D1032C2ED9CDB245EA05250F2C76
:1047900045EA054519D903F110022646103E0F2EB1
:1047A00042F8105C42F80C5C42F8085C42F8045C89
:1047B00002F11002F2D8A4F1100222F00F0204F06C
:1047C0000F041032032C13440DD91E462246043A1E
:1047D000032A46F8045BFAD8221F22F003020432AF
:1047E000134404F003042CB1C9B21C4403F8011BA8
:1047F000A342FBD170BC704714460346C2E700BF1A
:104800002DE9F04F174683B00E46002900F0E780EF
:10481000814607F10B05FFF705FA56F8043C162D03
:1048200023F00304A6F108084CD810221546AF4225
:104830004DD8944280F28480DFF8ACB3DBF80800F6
:1048400008EB0401884200F0D680486820F0010E91
:104850008E44DEF804E01EF0010F3FD120F003008B
:104860002044904280F2C180DB0700F18F8056F82F
:10487000083CC3EB080ADAF8043023F0030300EB2A
:10488000030E964534DBCB688A685746D3609A603E
:1048900057F8081FDAF80C30CB60221F242A9960E1
:1048A00000F23681132A40F2FD803368CAF80830DE
:1048B0007368CAF80C301B2A00F2408108360AF1EE
:1048C0001003F0E025F00705002D2A46AFDA0C238F
:1048D0000020C9F8003003B0BDE8F08FD90755D4E7
:1048E00056F8083CC3EB080ADAF8043023F0030357
:1048F000234493424ADB5746DAF80C1057F8080F66
:10490000221F242AC160886000F20E81132A40F21F
:1049100009813168CAF808107168CAF80C101B2A9E
:1049200000F2218108360AF11002316811607168C5
:104930005160B16891601C46DAF804303E46D046BA
:10494000621B0F2A03F001030ED823434444C8F826
:104950000430636843F0010363604846FFF764F97D
:10496000304603B0BDE8F08F08EB05011D4342F06F
:1049700001030A44C8F804504B60536843F0010334
:10498000083153604846FFF7B1FDE6E7394648462F
:10499000FEF7D6FD0746D8B156F8043C23F00102D5
:1049A0004244A0F10801914200F0AC80221F242A69
:1049B00000F29980132A6AD80346324611681960BA
:1049C0005168596092689A6031464846FFF78EFDFB
:1049D0004846FFF729F9384603B0BDE8F08F114685
:1049E00003B0BDE8F04FFEF7ABBDCA688968044666
:1049F000CA609160A4E7416821F00301214405F1F8
:104A0000100081425BDADB07C0D456F8083CC3EBE8
:104A1000080ADAF8043023F0030301EB030C6045C5
:104A20003FF766AF5746DAF80C3057F8081F221FD9
:104A3000242ACB60996000F2B880132A40F2A98042
:104A40003368CAF808307368CAF80C301B2A00F2C1
:104A5000B58008360AF1100332681A6072685A602D
:104A6000B2689A600AEB0502C5EB0C0343F0010340
:104A7000CBF808205360DAF8043003F001031D433B
:104A80004846CAF80450FFF7CFF8384669E733685C
:104A90000360736843601B2A29D800F1080306F1FC
:104AA00008028BE73B4632681A6072685A60B26847
:104AB0009A603E467446DAF80430D04640E708EB88
:104AC00005024B1B43F00103CBF80820536056F856
:104AD000043C03F001031D43484646F8045CFFF71D
:104AE000A3F830463DE73146FFF7D8FD6CE7B368E1
:104AF0008360F368C360242A2CD000F1100306F110
:104B000010025BE750F8042C22F00302144417E76C
:104B10003146384674463E46FFF7C0FDD046DAF8C7
:104B200004300DE73A4600E7314638461C463E461B
:104B3000FFF7B4FDD046DAF8043001E7B368CAF8ED
:104B40001030F368CAF81430242A18D010360AF14D
:104B50001803A8E7336903617369436106F118021A
:104B600000F118032AE7B168CAF81010F168CAF812
:104B70001410242A0FD010360AF11802D5E6336932
:104B8000CAF818307369CAF81C3018360AF12003C5
:104B900089E73B4660E73269CAF818207269CAF8AB
:104BA0001C2018360AF12002BFE631463846CDF8FF
:104BB00004C0FFF773FDDDF804C053E7B368CAF81B
:104BC0001030F368CAF81430242A03D010360AF1E2
:104BD000180341E73369CAF818307369CAF81C3002
:104BE00018360AF1200337E78C04002081F00041D9
:104BF00002E000BF83F0004330B54FEA41044FEAC2
:104C0000430594EA050F08BF90EA020F1FBF54EA5C
:104C1000000C55EA020C7FEA645C7FEA655C00F0F8
:104C2000E2804FEA5454D4EB5555B8BF6D420CDDC9
:104C30002C4480EA020281EA030382EA000083EA4C
:104C4000010180EA020281EA0303362D88BF30BDEC
:104C500011F0004F4FEA01314FF4801C4CEA113142
:104C600002D0404261EB410113F0004F4FEA0333A1
:104C70004CEA133302D0524263EB430394EA050F2C
:104C800000F0A780A4F10104D5F1200E0DDB02FA9B
:104C90000EFC22FA05F2801841F1000103FA0EF22F
:104CA000801843FA05F359410EE0A5F120050EF1F5
:104CB000200E012A03FA0EFC28BF4CF0020C43FA26
:104CC00005F3C01851EBE37101F0004507D54FF033
:104CD000000EDCF1000C7EEB00006EEB0101B1F583
:104CE000801F1BD3B1F5001F0CD349085FEA3000C9
:104CF0004FEA3C0C04F101044FEA445212F5800FD4
:104D000080F09A80BCF1004F08BF5FEA500C50F170
:104D1000000041EB045141EA050130BD5FEA4C0C53
:104D2000404141EB010111F4801FA4F10104E9D1DC
:104D300091F0000F04BF01460020B1FA81F308BFD3
:104D40002033A3F10B03B3F120020CDA0C3208DD9F
:104D500002F1140CC2F10C0201FA0CF021FA02F17A
:104D60000CE002F11402D8BFC2F1200C01FA02F1EA
:104D700020FA0CFCDCBF41EA0C019040E41AA2BF0F
:104D800001EB0451294330BD6FEA04041F3C1CDAD7
:104D90000C340EDC04F11404C4F1200220FA04F0F7
:104DA00001FA02F340EA030021FA04F345EA0301A1
:104DB00030BDC4F10C04C4F1200220FA02F001FA63
:104DC00004F340EA0300294630BD21FA04F02946E5
:104DD00030BD94F0000F83F4801306BF81F480117E
:104DE0000134013D4EE77FEA645C18BF7FEA655CF1
:104DF00029D094EA050F08BF90EA020F05D054EAC3
:104E0000000C04BF1946104630BD91EA030F1EBFC7
:104E10000021002030BD5FEA545C05D140004941CB
:104E200028BF41F0004130BD14F580043CBF01F5BE
:104E3000801130BD01F0004545F0FE4141F47001A4
:104E40004FF0000030BD7FEA645C1ABF194610467F
:104E50007FEA655C1CBF0B46024650EA013406BF80
:104E600052EA033591EA030F41F4002130BD00BF3F
:104E700090F0000F04BF0021704730B54FF48064FC
:104E800004F132044FF000054FF0000150E700BF7D
:104E900090F0000F04BF0021704730B54FF48064DC
:104EA00004F1320410F0004548BF40424FF00001C9
:104EB0003EE700BF42004FEAE2014FEA31014FEA0C
:104EC00002701FBF12F07F4393F07F4F81F060515B
:104ED000704792F0000F14BF93F07F4F704730B5CA
:104EE0004FF4607401F0004521F0004120E700BF5D
:104EF00050EA010208BF704730B54FF000050AE0E4
:104F000050EA010208BF704730B511F0004502D5E4
:104F1000404261EB41014FF4806404F132045FEAE6
:104F2000915C3FF4DCAE4FF003025FEADC0C18BF8B
:104F300003325FEADC0C18BF033202EBDC02C2F181
:104F4000200300FA03FC20FA02F001FA03FE40EA13
:104F50000E0021FA02F11444C1E600BF70B54FF013
:104F6000FF0C4CF4E06C1CEA11541DBF1CEA1355F5
:104F700094EA0C0F95EA0C0F00F0DEF82C4481EA5D
:104F8000030621EA4C5123EA4C5350EA013518BF7D
:104F900052EA033541F4801143F4801338D0A0FB6A
:104FA00002CE4FF00005E1FB02E506F00042E0FB17
:104FB00003E54FF00006E1FB03569CF0000F18BF1D
:104FC0004EF0010EA4F1FF04B6F5007F64F54074C5
:104FD00004D25FEA4E0E6D4146EB060642EAC62158
:104FE00041EA55514FEAC52040EA5E504FEACE2EC5
:104FF000B4F1FD0C88BFBCF5E06F1ED8BEF1004FC8
:1050000008BF5FEA500E50F1000041EB045170BD43
:1050100006F0004646EA010140EA020081EA030187
:10502000B4EB5C04C2BFD4EB0C0541EA045170BD83
:1050300041F480114FF0000E013C00F3AB8014F1FD
:10504000360FDEBF002001F0004170BDC4F1000446
:10505000203C35DA0C341BDC04F11404C4F12005C7
:1050600000FA05F320FA04F001FA05F240EA020022
:1050700001F0004221F0004110EBD37021FA04F658
:1050800042EB06015EEA430E08BF20EAD37070BD12
:10509000C4F10C04C4F1200500FA04F320FA05F071
:1050A00001FA04F240EA020001F0004110EBD37073
:1050B00041F100015EEA430E08BF20EAD37070BDE3
:1050C000C4F1200500FA05F24EEA020E20FA04F3BC
:1050D00001FA05F243EA020321FA04F001F000416B
:1050E00021FA04F220EA020000EBD3705EEA430EDC
:1050F00008BF20EAD37070BD94F0000F0FD101F00B
:105100000046400041EB010111F4801F08BF013C43
:10511000F7D041EA060195F0000F18BF704703F081
:105120000046520043EB030313F4801F08BF013D08
:10513000F7D043EA0603704794EA0C0F0CEA1355C4
:1051400018BF95EA0C0F0CD050EA410618BF52EA7E
:105150004306D1D181EA030101F000414FF0000084
:1051600070BD50EA410606BF1046194652EA430692
:1051700019D094EA0C0F02D150EA013613D195EA06
:105180000C0F05D152EA03361CBF104619460AD14E
:1051900081EA030101F0004141F0FE4141F4700158
:1051A0004FF0000070BD41F0FE4141F4780170BD48
:1051B00070B54FF0FF0C4CF4E06C1CEA11541DBFAD
:1051C0001CEA135594EA0C0F95EA0C0F00F0A7F8AF
:1051D000A4EB050481EA030E52EA03354FEA0131DC
:1051E00000F088804FEA03334FF0805545EA1313EF
:1051F00043EA12634FEA022245EA111545EA1065B7
:105200004FEA00260EF000419D4208BF964244F14D
:10521000FD0404F5407402D25B084FEA3202B61A6C
:1052200065EB03055B084FEA32024FF480104FF440
:10523000002CB6EB020E75EB030E22BFB61A7546B4
:1052400040EA0C005B084FEA3202B6EB020E75EB47
:10525000030E22BFB61A754640EA5C005B084FEAAF
:105260003202B6EB020E75EB030E22BFB61A75467C
:1052700040EA9C005B084FEA3202B6EB020E75EB87
:10528000030E22BFB61A754640EADC0055EA060E48
:1052900018D04FEA051545EA16754FEA06164FEA8B
:1052A000C30343EA52734FEAC2025FEA1C1CC0D137
:1052B00011F4801F0BD141EA00014FF000004FF0C4
:1052C000004CB6E711F4801F04BF01430020B4F185
:1052D000FD0C88BFBCF5E06F3FF6AFAEB5EB030C3D
:1052E00004BFB6EB020C5FEA500C50F1000041EB3A
:1052F000045170BD0EF0004E4EEA113114EB5C0407
:10530000C2BFD4EB0C0541EA045170BD41F48011D9
:105310004FF0000E013C90E645EA060E8DE60CEAE1
:10532000135594EA0C0F08BF95EA0C0F3FF43BAFFE
:1053300094EA0C0F0AD150EA01347FF434AF95EAB5
:105340000C0F7FF425AF104619462CE795EA0C0F99
:1053500006D152EA03353FF4FDAE1046194622E766
:1053600050EA410618BF52EA43067FF4C5AE50EA40
:1053700041047FF40DAF52EA43057FF4EBAE12E730
:105380004FF0FF3C06E000BF4FF0010C02E000BF11
:105390004FF0010C4DF804CD4FEA410C7FEA6C5CF4
:1053A0004FEA430C18BF7FEA6C5C1BD001B050EA97
:1053B000410C0CBF52EA430C91EA030F02BF90EA82
:1053C000020F0020704710F1000F91EA030F58BF41
:1053D000994208BF90422CBFD8176FEAE37040F0A3
:1053E000010070474FEA410C7FEA6C5C02D150EA41
:1053F000013C07D14FEA430C7FEA6C5CD6D152EAFC
:10540000033CD3D05DF8040B704700BF84461046C0
:1054100062468C461946634600E000BF01B5FFF7BF
:10542000B7FF002848BF10F1000F01BD4DF808ED8F
:10543000FFF7F4FF0CBF012000205DF808FB00BF60
:105440004DF808EDFFF7EAFF34BF012000205DF8BA
:1054500008FB00BF4DF808EDFFF7E0FF94BF012007
:1054600000205DF808FB00BF4DF808EDFFF7CEFF08
:1054700094BF012000205DF808FB00BF4DF808ED47
:10548000FFF7C4FF34BF012000205DF808FB00BF18
:105490004FEA410212F5001215D211D56FF478735C
:1054A000B3EB625212D94FEAC12343F0004343EAFF
:1054B000505311F0004F23FA02F018BF40427047DA
:1054C0004FF00000704750EA013005D111F0004064
:1054D00008BF6FF0004070474FF00000704700BFFA
:1054E0004BB942B9002908BF002802D04FF0FF3164
:1054F000084600F03BB882B0EC462DE9005000F0C1
:105500001DF8DDF804E002B00CBC70472DE9F04155
:10551000069C154606460F46984600F029F805FBFE
:1055200001F300FB0838A5FB0023B21A434467EBE4
:105530000303C4E90023BDE8F08100BF2DE9F04179
:10554000069C904606460F461D4600F05FF900FB9C
:1055500005F5A0FB082308FB0155B21A2B4467EBA5
:105560000303C4E90023BDE8F08100BF704700BF1A
:1055700000292DE9F043C0F2A6800026002BC0F2DE
:105580009C80884694469E46154604460F46002B4E
:105590003DD18A4259D9B2FA82F33BB1C3F120021C
:1055A0009F4020FA02F29D4017439C40290C220C98
:1055B000B7FBF1FEA8B201FB1E7742EA074700FBEA
:1055C0000EF3BB420AD97F190EF1FF3280F005813C
:1055D000BB4240F20281AEF1020E2F44FF1AA4B288
:1055E000B7FBF1F301FB137744EA074700FB03F035
:1055F000B84208D97F1903F1FF3280F0F080B84239
:1056000040F2ED80023B43EA0E43002203E08B426E
:105610000FD900221346341C18BF012460424FF0FA
:10562000000565EB45015840514000196941BDE84E
:10563000F083B3FA83F2002A40F086808B4202D3D3
:10564000844500F2DB800123E5E712B90123B3FBB7
:10565000F2F5B5FA85F000283BD1781B4FEA154EDC
:105660001FFA85FC0122B0FBFEF8210C0EFB180787
:1056700041EA07470CFB08F3BB4207D97F1908F141
:10568000FF3102D2BB4200F2BD808846FF1AA4B2AD
:10569000B7FBFEF30EFB137744EA07470CFB03FC52
:1056A000BC4507D97F1903F1FF3102D2BC4500F296
:1056B000A7800B4643EA0843ADE752426FEA06066D
:1056C00063EB43035DE7404261EB41014FF0FF367E
:1056D00054E7C0F1200224FA02F107FA00F38540F2
:1056E0004FEA154ED7401943B7FBFEF20B0C0EFBE9
:1056F00012771FFA85FC43EA07430CFB02F79F422F
:1057000004FA00F407D95B1902F1FF3074D29F420A
:1057100072D9023A2B44DF1B89B2B7FBFEF80EFBAD
:10572000187341EA03430CFB08F79F4208D95B1941
:1057300008F1FF315CD29F425AD9A8F102082B44EC
:10574000D81B48EA02428EE7C2F120032CFA03F18B
:105750000EFA02FE20FA03F741EA0E0E08FA02F0F2
:1057600028FA03F14FEA1E453843B1FBF5F8030C64
:1057700005FB18111FFA8EF743EA014107FB08F3F6
:105780008B420CFA02FC09D911EB0E0108F1FF392A
:1057900030D28B422ED9A8F102087144C91A80B2C6
:1057A000B1FBF5F305FB131140EA014107FB03F7D9
:1057B0008F4208D911EB0E0103F1FF3016D28F4250
:1057C00014D9023B714443EA0843C91BA3FB0C896B
:1057D000494509D305D000221DE79646FEE613464B
:1057E00011E794404445F6D2013BF4E70346EAE76B
:1057F0008846A5E7C846D1E702468CE713460AE784
:10580000023B57E7A8F102082F443FE72DE9F0419A
:10581000002B44D18A42154604464FD9B2FA82F78A
:105820000E464FB1C7F12003B94020FA03F602FA41
:1058300007F50E4300FA07F44FEA154E230CB6FBAA
:10584000FEF0AFB20EFB106143EA014307FB00F12B
:10585000994209D95B1900F1FF3280F0EC8099423E
:1058600040F2E98002382B445A1AA4B2B2FBFEF38C
:105870000EFB132244EA024207FB03F7974208D9C2
:10588000521903F1FF3180F0D880974240F2D58061
:10589000023B43EA004000263146BDE8F0818B42DE
:1058A00047D8B3FA83F6002E48D18B4202D3824206
:1058B00000F2CD8001203146BDE8F08112B901250A
:1058C000B5FBF2F5B5FA85F8B8F1000F77D14A1BB0
:1058D0004FEA154EAFB20126B2FBFEF0230C0EFBD1
:1058E000102143EA014107FB00F38B4207D9491914
:1058F00000F1FF3202D28B4200F2BA801046C91A80
:10590000A4B2B1FBFEF30EFB131144EA014407FB02
:1059100003F7A74208D9641903F1FF3280F08F80A2
:10592000A74240F28C80023B43EA00403146BDE88A
:10593000F081002630463146BDE8F081C6F12004F2
:1059400022FA04F5B3402B4320FA04FC01FA06F7CF
:1059500021FA04F54FEA134E4CEA0707B5FBFEF8AF
:10596000390C0EFB18551FFA83FC41EA05450CFB68
:1059700008F1A94202FA06F204D9ED1808F1FF3441
:1059800067D3A0466D1ABFB2B5FBFEF40EFB1455EB
:1059900047EA05410CFB04FC8C4504D9C91804F105
:1059A000FF355CD32C4644EA0844CCEB0101A4FB50
:1059B0000223994248D344D0204600266CE7C8F120
:1059C000200401FA08F305FA08F520FA04F7E1408B
:1059D0004FEA154E1F43B1FBFEF63A0C0EFB1611B3
:1059E0001FFA85FC42EA01430CFB06F29A4200FAD8
:1059F00008F407D95B1906F1FF3137D29A4235D93D
:105A0000023E2B449B1ABFB2B3FBFEF00EFB1033D9
:105A100047EA03430CFB00F1994207D95B1900F1F7
:105A2000FF3221D299421FD902382B445A1A40EA38
:105A30000646674650E7104616E70B4629E7134629
:105A400072E7B0409042B7D2601E002624E730468D
:105A500022E7A94295D9A8F102081D4492E78C4596
:105A6000A0D9023C19449EE71046DFE70E46C9E77D
:105A70000238294443E700BF25690A00202020207E
:105A8000202020202020202020202020494E4600B9
:105A9000696E66004E414E006E616E0030313233E9
:105AA000343536373839414243444546000000001A
:105AB0003031323334353637383961626364656684
:105AC00000000000286E756C6C290000300000009A
:105AD00030303030303030303030303030303030C6
