:020000040800F2
:100000001808002089010008E1010008E10100084A
:10001000E1010008E1010008E10100080000000022
:10002000000000000000000000000000E1010008E6
:10003000E101000800000000E10100088102000861
:10004000E1010008E1010008E1010008E101000808
:10005000E1010008E1010008E1010008E1010008F8
:10006000E1010008E1010008E1010008E1010008E8
:10007000E1010008E1010008E1010008E1010008D8
:10008000E1010008E1010008E1010008E1010008C8
:10009000E1010008E1010008E1010008E1010008B8
:1000A000E1010008E1010008E1010008E1010008A8
:1000B000E1010008E1010008E1010008E101000898
:1000C000E1010008E1010008E1010008E101000888
:1000D000E1010008E1010008E1010008E101000878
:1000E000E1010008E1010008E1010008E101000868
:1000F000E1010008E1010008E1010008E101000858
:10010000E1010008E1010008E1010008E101000847
:10011000E1010008E1010008E1010008E101000837
:10012000E1010008E1010008E1010008E101000827
:10013000E1010008E1010008E1010008E101000817
:10014000E1010008E1010008E1010008E101000807
:10015000E1010008E1010008E1010008E1010008F7
:10016000E1010008E1010008E1010008E1010008E7
:10017000E1010008E1010008E1010008E1010008D7
:10018000E1010008E101000880B582B000AF0F4B2B
:100190007B600F4B3B6007E03B681A1D3A607A6852
:1001A000111D796012681A603B680A4A9342F3D3C2
:1001B00009480A494FF000028842B8BF40F8042BB2
:1001C000FADB00F06BF80837BD4680BD94080008E4
:1001D000000000201400002014000020180000205F
:1001E00080B400AFFEE700BF80B483B000AF034629
:1001F0003960FB7197F90730002B0BDA0D49FB7959
:1002000003F00F03043B3A68D2B21201D2B20B449E
:100210001A7609E0084997F907303A68D2B2120114
:10022000D2B20B4483F800230C37BD465DF8047B43
:10023000704700BF00ED00E000E100E080B582B053
:1002400000AF78607B68B3F1807F01D3012311E0B8
:100250000A4A7B6823F07F43013B53604FF0FF3035
:100260000F21FFF7C1FF054B00229A60034B0722C5
:100270001A60002318460837BD4680BD10E000E034
:1002800080B400AF044B1B68013B034A1360BD46BA
:100290005DF8047B704700BF1400002080B582B079
:1002A00000AF00F0BBFA00F03DFA164B1B68164A8F
:1002B000A2FB03239B091846FFF7C0FF082001217A
:1002C00000F028F94FF400533B6001233B710023F9
:1002D0007B710023BB710023FB713B460B48194621
:1002E00000F070F909484FF4005100F0F9F9084B9B
:1002F0004FF47A721A6000BF054B1B68002BFBD1CC
:10030000F0E700BF00000020D34D6210000C024057
:100310001400002080B400AF104A104B1B6843F05B
:10032000010313600D4B00229A600C4A0B4B1B68B3
:1003300023F0847323F480331360084B084A5A6017
:10034000064A064B1B6823F480231360034B0022EC
:10035000DA60BD465DF8047B704700BF003802409C
:100360001030002480B483B000AF0346FB71054B0E
:1003700000221A70034AFB7913700C37BD465DF8F2
:10038000047B70470238024080B582B000AF002382
:100390003B600023FB710023BB71312000F0D8F8D3
:1003A0000346BB713B6801333B603B68B3F5A06F0C
:1003B00002D0BB79002BF0D0312000F0C9F8034601
:1003C000002B02D00123FB7101E00023FB71FB79BC
:1003D00018460837BD4680BD80B485B000AFF860D0
:1003E000B9607A603B600A497B689A01BB681A432E
:1003F0003B685B08013B1B041A43FB681A43BB695B
:100400001B0613434B601437BD465DF8047B7047F1
:100410000038024080B483B000AF0346FB71044A49
:10042000FB7913600C37BD465DF8047B704700BF55
:100430006000474280B485B000AF78600023FB6065
:10044000094B9B68FB60FB6823F00303FB60FA68C1
:100450007B681343FB60044AFB6893601437BD4616
:100460005DF8047B704700BF0038024080B485B05F
:1004700000AF78600023FB60094B9B68FB60FB6862
:1004800023F0F003FB60FA687B681343FB60044AC7
:10049000FB6893601437BD465DF8047B704700BF6E
:1004A0000038024080B485B000AF78600023FB6064
:1004B000094B9B68FB60FB6823F4E053FB60FA6820
:1004C0007B681343FB60044AFB6893601437BD46A6
:1004D0005DF8047B704700BF0038024080B485B0EF
:1004E00000AF78600023FB60094B9B68FB60FB68F2
:1004F00023F46043FB607B68DB00FA681343FB6016
:10050000034AFB6893601437BD465DF8047B70476F
:100510000038024080B483B000AF78600B46FB70B7
:10052000FB78002B06D00949084B1A6B7B681343F4
:100530000B6306E00549054B1A6B7B68DB431340F0
:100540000B630C37BD465DF8047B704700380240F2
:1005500080B487B000AF0346FB710023FB6000232B
:100560007B610023FB74FB795B09DBB2FB60FB68FA
:10057000012B03D1124B1B687B6109E0FB68022B46
:1005800003D10F4B1B6F7B6102E00D4B5B6F7B61F7
:10059000FB7903F01F03FB60FB687A6922FA03F31F
:1005A00003F00103002B02D00123FB7401E00023C0
:1005B000FB74FB7C18461C37BD465DF8047B704716
:1005C0000038024080B487B000AF78603960002303
:1005D0007B6100233B610023FB6000237B6176E0AD
:1005E0007B69012202FA03F33B613B681A683B69AD
:1005F0001340FB60FA683B699A4265D17B681A68D0
:100600007B695B00194603238B40DB431A407B6800
:100610001A607B681A683B681B7919467B695B0026
:1006200001FA03F31A437B681A603B681B79012BBC
:1006300003D03B681B79022B2ED17B689A687B69BB
:100640005B00194603238B40DB431A407B689A60AA
:100650007B689A683B685B7919467B695B0001FAA5
:1006600003F31A437B689A607B685A687B699BB284
:10067000194601238B40DB431A407B685A607B6834
:100680005B683A68927911467A6992B201FA02F28D
:1006900092B21A437B685A607B68DA687B699BB2C6
:1006A0005B00032101FA03F3DB431A407B68DA6045
:1006B0007B68DA683B68DB7919467B695B0001FA85
:1006C00003F31A437B68DA607B6901337B617B69E2
:1006D0000F2B85D91C37BD465DF8047B704700BFE2
:1006E00080B483B000AF78600B467B807B685A692A
:1006F0007B885A407B685A610C37BD465DF8047BA5
:10070000704700BF80B483B000AF7860044B7A6854
:10071000D2B21A700C37BD465DF8047B704700BF3B
:10072000003C024080B487B000AF00233B6100234F
:100730007B610223FB600023BB6002237B60324BA2
:100740009B6803F00C033B613B69042B07D0082B2B
:1007500009D0002B3FD12D4B2D4A1A603FE02B4B87
:100760002C4A1A603BE0284B5B6803F480039B0D26
:10077000BB60254B5B6803F03F037B60BB68002BCD
:100780000DD0244A7B68B2FBF3F21F4B596847F641
:10079000C0730B409B0903FB02F37B610CE01C4A16
:1007A0007B68B2FBF3F2184B596847F6C0730B40F5
:1007B0009B0903FB02F37B61134B5B6803F440333B
:1007C0001B0C01335B00FB607A69FB68B2FBF3F33F
:1007D0000E4A136003E00D4B0D4A1A6000BF0A4B2E
:1007E0009B6803F0F0031B090B4AD35CDBB23B614F
:1007F000064B1A683B6922FA03F3044A13601C375C
:10080000BD465DF8047B70470038024000000020C0
:100810000024F40000127A000400002080B584B0A7
:1008200002AFFFF777FD0120FFF79CFDFFF7ACFD5E
:100830000346FB71FB79012B26D1072300934FF46C
:10084000800008214FF4A8720223FFF7C5FD0120A4
:10085000FFF7E0FD00BF3920FFF77AFE0346002BCB
:10086000F9D00520FFF74EFF0020FFF7FFFD4FF402
:10087000A050FFF717FE4FF48050FFF72FFE022025
:10088000FFF7D8FD012300E0002318460837BD46D6
:0408900080BD00BF68
:10089400007A030A000000000000000001020304C3
:0408A4000607080932
:0400000508000000EF
:00000001FF
