:020000040800F2
:100000002808002099040008F1040008F104000801
:10001000F1040008F1040008F104000800000000E9
:10002000000000000000000000000000F1040008D3
:10003000F104000800000000F1040008410200087B
:10004000F1040008F1040008F1040008F1040008BC
:10005000F1040008F1040008F1040008F1040008AC
:10006000F1040008F1040008F1040008F10400089C
:10007000F1040008F1040008F1040008F10400088C
:10008000F1040008F1040008F1040008F10400087C
:10009000F1040008F1040008F1040008F10400086C
:1000A000F1040008F1040008F1040008F10400085C
:1000B000F1040008F1040008F1040008F10400084C
:1000C000F1040008F1040008F1040008F10400083C
:1000D000F1040008F1040008F1040008F10400082C
:1000E000F1040008F1040008F1040008F10400081C
:1000F000F1040008F1040008F1040008F10400080C
:10010000F1040008F1040008F1040008F1040008FB
:10011000F1040008F1040008F1040008F1040008EB
:10012000F1040008F1040008F1040008F1040008DB
:10013000F1040008F1040008F1040008F1040008CB
:10014000F1040008F1040008F1040008F1040008BB
:10015000F1040008F1040008F1040008F1040008AB
:10016000F1040008F1040008F1040008F10400089B
:10017000F1040008F1040008F1040008F10400088B
:10018000F1040008F104000880B483B000AF034616
:100190003960FB7197F90730002B0BDA0D49FB79B9
:1001A00003F00F03043B3A68D2B21201D2B20B44FF
:1001B0001A7609E0084997F907303A68D2B2120175
:1001C000D2B20B4483F800230C37BD465DF8047BA4
:1001D000704700BF00ED00E000E100E080B582B0B4
:1001E00000AF78607B68B3F1807F01D3012311E019
:1001F0000A4A7B6823F07F43013B53604FF0FF3096
:100200000F21FFF7C1FF054B00229A60034B072225
:100210001A60002318460837BD4680BD10E000E094
:1002200080B500AF044B1B68044AA2FB03239B0C60
:100230001846FFF7D3FF80BD1000002083DE1B436C
:1002400080B400AF064B1B68002B04D0044B1B6826
:10025000013B034A1360BD465DF8047B704700BF55
:100260002400002080B58AB000AF78603960002398
:100270007B6200233B620023FB610023BB617B6840
:100280001B8A9BB27B627B6A23F440537B623B6890
:10029000DB881A467B6A13437B627B6A9AB27B686F
:1002A0001A827B689B899BB27B627B6A23F4B05382
:1002B00023F00C037B623B689A883B681B891343DD
:1002C0009AB23B685B8913439BB21A467B6A13431D
:1002D0007B627B6A9AB27B689A817B689B8A9BB2BD
:1002E0007B627B6A23F440737B623B689B891A467E
:1002F0007B6A13437B627B6A9AB27B689A8207F1BE
:100300000803184600F032FA7B68314A934203D062
:100310007B68304A934202D17B693B6201E03B69D2
:100320003B627B689B899BB29BB21BB2002B0CDAB1
:100330003A6A13469B0013449A001A443B681B68B0
:100340005B00B2FBF3F3FB610BE03A6A13469B00E0
:1003500013449A001A443B681B689B00B2FBF3F3FA
:10036000FB61FB691C4AA2FB03235B091B017B6247
:100370007B6A1B09642202FB03F3FA69D31ABB618F
:100380007B689B899BB29BB21BB2002B0CDABB69CA
:10039000DB003233104AA2FB03235B0903F007039F
:1003A0007A6A13437B620BE0BB691B0132330A4A52
:1003B000A2FB03235B0903F00F037A6A13437B62FA
:1003C0007B6A9AB27B681A812837BD4680BD00BF20
:1003D00000100140001401401F85EB5180B483B030
:1003E00000AF78600B46FB70FB78002B08D07B6871
:1003F0009B899BB243F400539AB27B689A8107E0D1
:100400007B689B899BB223F400539AB27B689A81E4
:100410000C37BD465DF8047B704700BF80B483B0E5
:1004200000AF78600B467B807B88C3F308039AB2E9
:100430007B689A800C37BD465DF8047B704700BF2F
:1004400080B483B000AF78607B689B889BB2C3F3B5
:1004500008039BB218460C37BD465DF8047B704715
:1004600080B485B000AF78600B467B800023FB73BF
:100470007B681B889AB27B8813409BB2002B02D00A
:100480000123FB7301E00023FB73FB7B1846143749
:10049000BD465DF8047B704780B582B000AF0F4B5E
:1004A0007B600F4B3B6007E03B681A1D3A607A683F
:1004B000111D796012681A603B680A4A9342F3D3AF
:1004C00009480A494FF000028842B8BF40F8042B9F
:1004D000FADB00F011F80837BD4680BD380D000882
:1004E000000000202400002024000020280000201C
:1004F00080B400AFFEE700BF80B584B000AF00F06D
:1005000057FBFFF78DFE0820012100F0D9F94FF4C9
:1005100000537B6001233B720023BB720023FB72FC
:1005200000237B723B1D0F48194600F03FFA00F094
:100530007BFB0D4800F0D2FB00F0E4FB0346FB819F
:10054000FB89482B05D107484FF4005100F0BCFA55
:1005500007E0FB894C2B04D102484FF4005100F016
:10056000C1FAE9E7000C0240280D000880B400AF92
:10057000104A104B1B6843F0010313600D4B00221F
:100580009A600C4A0B4B1B6823F0847323F480336E
:100590001360084B084A5A60064A064B1B6823F44E
:1005A00080231360034B0022DA60BD465DF8047BB4
:1005B000704700BF003802401030002480B483B080
:1005C00000AF0346FB71054B00221A70034AFB790A
:1005D00013700C37BD465DF8047B7047023802404B
:1005E00080B582B000AF00233B600023FB71002385
:1005F000BB71312000F0A0F90346BB713B680133A9
:100600003B603B68B3F5A06F02D0BB79002BF0D004
:10061000312000F091F90346002B02D00123FB7139
:1006200001E00023FB71FB7918460837BD4680BD09
:1006300080B485B000AFF860B9607A603B600A4969
:100640007B689A01BB681A433B685B08013B1B044B
:100650001A43FB681A43BB691B0613434B601437EC
:10066000BD465DF8047B70470038024080B483B01B
:1006700000AF0346FB71044AFB7913600C37BD469B
:100680005DF8047B704700BF6000474280B485B0CE
:1006900000AF78600023FB60094B9B68FB60FB6840
:1006A00023F00303FB60FA687B681343FB60044A92
:1006B000FB6893601437BD465DF8047B704700BF4C
:1006C0000038024080B485B000AF78600023FB6042
:1006D000094B9B68FB60FB6823F0F003FB60FA6842
:1006E0007B681343FB60044AFB6893601437BD4684
:1006F0005DF8047B704700BF0038024080B485B0CD
:1007000000AF78600023FB60094B9B68FB60FB68CF
:1007100023F4E053FB60FA687B681343FB60044AF0
:10072000FB6893601437BD465DF8047B704700BFDB
:100730000038024080B485B000AF78600023FB60D1
:10074000094B9B68FB60FB6823F46043FB607B689C
:10075000DB00FA681343FB60034AFB6893601437BD
:10076000BD465DF8047B70470038024080B489B014
:1007700000AF78600023BB6100237B610023FB6135
:1007800002233B610023FB600223BB60484B9B6854
:1007900003F00C03BB61BB69042B07D0082B09D005
:1007A000002B3FD17B68434A1A603FE07B68424A96
:1007B0001A603BE03E4B5B6803F480039B0DFB60DB
:1007C0003B4B5B6803F03F03BB60FB68002B0DD025
:1007D000394ABB68B2FBF3F2354B596847F6C07330
:1007E0000B409B0903FB02F3FB610CE0314ABB6841
:1007F000B2FBF3F22E4B596847F6C0730B409B09CE
:1008000003FB02F3FB612A4B5B6803F440331B0CD0
:1008100001335B003B61FA693B69B2FBF3F27B6831
:100820001A6003E07B68234A1A6000BF204B9B6874
:1008300003F0F003BB61BB691B09BB611F4ABB69C5
:1008400013441B78DBB27B617B681A687B69DA40F2
:100850007B685A60164B9B6803F4E053BB61BB692D
:100860009B0ABB61154ABB6913441B78DBB27B61F1
:100870007B685A687B69DA407B689A600C4B9B689E
:1008800003F46043BB61BB695B0BBB610B4ABB6993
:1008900013441B78DBB27B617B685A687B69DA4062
:1008A0007B68DA602437BD465DF8047B704700BF83
:1008B000003802400024F40000127A0000000020FA
:1008C00080B483B000AF78600B46FB70FB78002BE0
:1008D00006D00949084B1A6B7B6813430B6306E08B
:1008E0000549054B1A6B7B68DB4313400B630C37E0
:1008F000BD465DF8047B70470038024080B483B089
:1009000000AF78600B46FB70FB78002B06D00949DE
:10091000084B5A6C7B6813434B6406E00549054B52
:100920005A6C7B68DB4313404B640C37BD465DF863
:10093000047B70470038024080B487B000AF0346A4
:10094000FB710023FB6000237B610023FB74FB79B8
:100950005B09DBB2FB60FB68012B03D1124B1B6808
:100960007B6109E0FB68022B03D10F4B1B6F7B619E
:1009700002E00D4B5B6F7B61FB7903F01F03FB60B3
:10098000FB687A6922FA03F303F00103002B02D01B
:100990000123FB7401E00023FB74FB7C18461C3729
:1009A000BD465DF8047B70470038024080B487B0D4
:1009B00000AF7860396000237B6100233B61002336
:1009C000FB6000237B6176E07B69012202FA03F37E
:1009D0003B613B681A683B691340FB60FA683B69FE
:1009E0009A4265D17B681A687B695B0019460323CC
:1009F0008B40DB431A407B681A607B681A683B684F
:100A00001B7919467B695B0001FA03F31A437B6883
:100A10001A603B681B79012B03D03B681B79022BC2
:100A20002ED17B689A687B695B00194603238B4053
:100A3000DB431A407B689A607B689A683B685B7905
:100A400019467B695B0001FA03F31A437B689A60DD
:100A50007B685A687B699BB2194601238B40DB4354
:100A60001A407B685A607B685B683A6892791146E5
:100A70007A6992B201FA02F292B21A437B685A6022
:100A80007B68DA687B699BB25B00032101FA03F3A0
:100A9000DB431A407B68DA607B68DA683B68DB79A5
:100AA00019467B695B0001FA03F31A437B68DA603D
:100AB0007B6901337B617B690F2B85D91C37BD4670
:100AC0005DF8047B704700BF80B483B000AF7860EE
:100AD0000B467B807B687A881A830C37BD465DF8AD
:100AE000047B704780B483B000AF78600B467B8096
:100AF0007B687A885A830C37BD465DF8047B704763
:100B000080B485B000AF78600B467B8013467B7065
:100B10000023FB600023BB607B787A8802F0070229
:100B200092009340FB607B88DB089BB218467B8871
:100B3000DB089BB21A467B68083253F822207B8878
:100B400003F007039B0019460F238B40DB4302EAA7
:100B500003017B6800F1080243F822107B88DB0860
:100B60009BB21A467B68083253F82220FB68134375
:100B7000BB607B88DB089BB21A467B680832B96889
:100B800043F822101437BD465DF8047B704700BF60
:100B900080B483B000AF7860044B7A68D2B21A7028
:100BA0000C37BD465DF8047B704700BF003C024037
:100BB00080B584B002AFFFF7D9FC0120FFF7FEFC3F
:100BC000FFF70EFD0346FB71FB79012B26D10723AE
:100BD00000934FF4800008214FF4A8720223FFF71E
:100BE00027FD0120FFF742FD00BF3920FFF7A4FEDB
:100BF0000346002BF9D00520FFF7CAFF0020FFF7BE
:100C000061FD4FF4A050FFF779FD4FF48050FFF7DE
:100C100091FD0220FFF73AFD012300E00023184672
:100C20000837BD4680BD00BF80B586B000AF02204A
:100C30000121FFF745FE10200121FFF75FFE194853
:100C400006210722FFF75CFF164807210722FFF75E
:100C500057FFC0233B6102233B7502237B750023B2
:100C6000BB750123FB7507F110030E481946FFF70A
:100C70009DFE4FF416533B600023BB810C237B8108
:100C800000233B810023FB800023BB803B460648BA
:100C90001946FFF7E7FA04480121FFF79FFB1837D1
:100CA000BD4680BD000402400010014080B582B006
:100CB00000AF0346FB7100BF07488021FFF7D0FB60
:100CC0000346002BF8D0FB799BB203481946FFF787
:100CD000A5FB0837BD4680BD0010014080B582B03D
:100CE00000AF786006E07B685A1C7A601B78184673
:100CF000FFF7DCFF7B681B78002BF4D10837BD467B
:100D000080BD00BF80B500AF00BF06482021FFF7BF
:100D1000A7FB0346002BF8D00248FFF791FB0346E0
:100D2000184680BD0010014048656C6C6F2C205740
:080D30006F726C64210A0000DF
:100D38000000000001020304010203040607080979
:100D4800007A030A0000000000000000010203040A
:040D58000607080979
:0400000508000000EF
:00000001FF
