:020000040800F2
:10000000A035012089010008F1010008F101000874
:10001000F1010008F1010008F101000800000000F2
:10002000000000000000000000000000391F000870
:10003000F1010008000000003921000899210008A2
:10004000F1010008F1010008F1010008F1010008C8
:10005000F1010008F1010008F1010008F1010008B8
:10006000F1010008F1010008F1010008F1010008A8
:10007000F1010008F1010008F1010008F101000898
:10008000F1010008F1010008F1010008F101000888
:10009000F1010008F1010008F1010008F101000878
:1000A000F1010008F1010008F1010008F101000868
:1000B000F1010008F1010008F1010008F101000858
:1000C000F1010008F1010008F1010008F101000848
:1000D000F1010008F1010008F1010008F101000838
:1000E000F1010008F1010008F1010008F101000828
:1000F000F1010008F1010008F1010008F101000818
:10010000F1010008F1010008F1010008F101000807
:10011000F1010008F1010008F1010008F1010008F7
:10012000F1010008F1010008F1010008F1010008E7
:10013000F1010008F1010008F1010008F1010008D7
:10014000F1010008F1010008F1010008F1010008C7
:10015000F1010008F1010008F1010008F1010008B7
:10016000F1010008F1010008F1010008F1010008A7
:10017000F1010008F1010008F1010008F101000897
:10018000F1010008F101000880B582B000AF124B08
:100190007B60124B3B6007E03B681A1D3A607A684F
:1001A000111D796012681A603B680D4A9342F3D3BF
:1001B0000C480D494FF000028842B8BF40F8042BAC
:1001C000FADBDFF82800016841F47001016000F0FB
:1001D00013F80837BD4680BD2C2F00080000002012
:1001E0001800002018000020A02D012088ED00E05C
:1001F00080B400AFFEE700BF80B584B004AF02F06A
:100200004FFD01F0CDFD00F04FF8012300930023D6
:10021000019300230293002303931B481B49802270
:10022000002300F0DDFC0123009300230193002351
:10023000029300230393164816498022002300F0FE
:10024000CFFC01230093002301930023029300239A
:100250000393114811498022002300F0C1FC0123BF
:1002600000930023019300230293002303930C487F
:100270000C498022002300F0B3FC00F0D5FD0023E0
:100280001846BD4680BD00BFE1020008E82E000808
:1002900001030008F02E000821030008FC2E0008CE
:1002A00041030008082F000880B582B000AF082085
:1002B000012100F055F94FF470433B6001233B717D
:1002C0000023BB710023FB7100237B713B46034875
:1002D000194601F003FC0837BD4680BD000C024002
:1002E00080B582B000AF786004484FF4804101F0DF
:1002F00083FC642000F046FDF6E700BF000C0240DE
:1003000080B582B000AF786004484FF4005101F02E
:1003100073FCFA2000F036FDF6E700BF000C024047
:1003200080B582B000AF786004484FF4805101F08E
:1003300063FC4FF4FA7000F025FDF5E7000C024075
:1003400080B582B000AF786004484FF4004101F0FE
:1003500053FC4FF47A7000F015FDF5E7000C0240F5
:1003600080B400AF104A104B1B6843F001031360C8
:100370000D4B00229A600C4A0B4B1B6823F08473D0
:1003800023F480331360084B084A5A60064A064B30
:100390001B6823F480231360034B0022DA60BD4600
:1003A0005DF8047B704700BF003802401030002425
:1003B00080B483B000AF0346FB71054B00221A7076
:1003C000034AFB7913700C37BD465DF8047B704718
:1003D0000238024080B582B000AF00233B600023AA
:1003E000FB710023BB71312000F0D8F80346BB71CC
:1003F0003B6801333B603B68B3F5A06F02D0BB792B
:10040000002BF0D0312000F0C9F80346002B02D0B9
:100410000123FB7101E00023FB71FB7918460837CB
:10042000BD4680BD80B485B000AFF860B9607A6029
:100430003B600A497B689A01BB681A433B685B08CA
:10044000013B1B041A43FB681A43BB691B06134399
:100450004B601437BD465DF8047B7047003802409E
:1004600080B483B000AF0346FB71044AFB7913608C
:100470000C37BD465DF8047B704700BF6000474203
:1004800080B485B000AF78600023FB60094B9B68A7
:10049000FB60FB6823F00303FB60FA687B6813438F
:1004A000FB60044AFB6893601437BD465DF8047B2B
:1004B000704700BF0038024080B485B000AF78605C
:1004C0000023FB60094B9B68FB60FB6823F0F00393
:1004D000FB60FA687B681343FB60044AFB68936027
:1004E0001437BD465DF8047B704700BF00380240FA
:1004F00080B485B000AF78600023FB60094B9B6837
:10050000FB60FB6823F4E053FB60FA687B681343ED
:10051000FB60044AFB6893601437BD465DF8047BBA
:10052000704700BF0038024080B485B000AF7860EB
:100530000023FB60094B9B68FB60FB6823F460436E
:10054000FB607B68DB00FA681343FB60034AFB68CF
:1005500093601437BD465DF8047B70470038024055
:1005600080B483B000AF78600B46FB70FB78002B43
:1005700006D00949084B1A6B7B6813430B6306E0EE
:100580000549054B1A6B7B68DB4313400B630C3743
:10059000BD465DF8047B70470038024080B487B0E8
:1005A00000AF0346FB710023FB6000237B61002347
:1005B000FB74FB795B09DBB2FB60FB68012B03D1A9
:1005C000124B1B687B6109E0FB68022B03D10F4BC8
:1005D0001B6F7B6102E00D4B5B6F7B61FB7903F06E
:1005E0001F03FB60FB687A6922FA03F303F001033F
:1005F000002B02D00123FB7401E00023FB74FB7C81
:1006000018461C37BD465DF8047B70470038024031
:1006100080B586B004AF00237B6000F09BFA134BDB
:100620001B68002B0FD002230093002301930023AB
:100630000293002303930E480E494FF48272002365
:1006400000F0CEFA78607B68002B09D14FF05003A0
:1006500083F31188BFF36F8FBFF34F8F3B60FEE7CB
:100660007B6818460837BD4680BD00BF48000020A3
:100670009D070008142F000880B58AB000AFF8600D
:10068000B9607A603B6000237B62FB68002B09D174
:100690004FF0500383F31188BFF36F8FBFF34F8F79
:1006A0003B62FEE71C4B1B68002B30D0BB687B61B4
:1006B0007B68BB61FB68FB61BB68052B1CDC01F040
:1006C000DDF80346022B0BD1134B1A6807F1140314
:1006D000104619463A6B002301F09AFE786216E044
:1006E0000D4B1A6807F11403104619460022002327
:1006F00001F08EFE78620AE0074B1A6807F11403D6
:10070000104619463A68002301F078FF78627B6A48
:1007100018462837BD4680BD4800002080B588B007
:1007200002AF786039601C4B1B68DB68DB687B615B
:100730007B690433184601F009FB7B69DB69012BF7
:1007400022D17B699A697B681344786919463A68B3
:100750007B6800F0C7F80346012B15D100230093F6
:10076000786900217A680023FFF786FF38613B69CA
:10077000002B09D14FF0500383F31188BFF36F8F23
:10078000BFF34F8FFB60FEE77B695B6A7869984730
:100790001837BD4680BD00BF4000002080B584B042
:1007A00000AF786007F10803184600F057F8F860CA
:1007B000BB68F868194600F003F800F0D5F8F1E7D7
:1007C00080B584B000AF7860396000F079FB07F144
:1007D0000803184600F066F8F860BB68002B31D1BA
:1007E0003B68002B0AD17A68FB689A4206D800F071
:1007F00075FB7868F968FFF791FF25E03B68002BEF
:1008000008D0134B1B681B68002B0CBF012300236F
:10081000DBB23B600F4B19687A68FB68D31A084655
:1008200019463A6802F0B2F900F058FB0346002B73
:100830000AD1094B4FF080521A60BFF34F8FBFF3BC
:100840006F8F01E000F04AFB1037BD4680BD00BF4E
:10085000440000204800002004ED00E080B485B092
:1008600000AF78600E4B1B681B68002B0CBF012388
:100870000023DBB21A467B681A607B681B68002B7A
:1008800005D1074B1B68DB681B68FB6001E0002398
:10089000FB60FB6818461437BD465DF8047B704763
:1008A0004000002080B584B000AF786000F0ACFB61
:1008B000F8600B4B1B68FA689A4205D200F0EAF820
:1008C0007B6801221A6002E07B6800221A60044AF9
:1008D000FB681360FB6818461037BD4680BD00BF3B
:1008E0004C00002080B586B000AFF860B9607A6037
:1008F0003B6000237B61FB68BA685A60FB68FA685A
:100900001A61BA687B689A4212D87A683B68D21A30
:10091000FB689B699A4202D301237B611BE0104B69
:100920001A68FB6804331046194601F0D7F912E043
:100930007A683B689A4206D2BA683B689A4202D308
:1009400001237B6107E0074B1A68FB6804331046FC
:10095000194601F0C3F97B6918461837BD4680BDBA
:10096000440000204000002080B58CB002AF7DE044
:10097000BB68002B7ADB3B697B627B6A5B69002B7F
:1009800004D07B6A0433184601F0E0F93B1D184699
:10099000FFF788FF3862BB68092B66D801A252F8BE
:1009A00023F000BFCD090008CD090008CD090008DB
:1009B0006D0A00082B0A0008630A0008CD09000828
:1009C000CD0900086D0A00082B0A0008FA687B6A46
:1009D0009B691A44FB68786A11463A6AFFF782FFFE
:1009E0000346012B20D17B6A5B6A786A98477B6A51
:1009F000DB69012B18D1FA687B6A9B691A440023D2
:100A00000093786A00210023FFF736FEF861FB6946
:100A1000002B09D14FF0500383F31188BFF36F8F80
:100A2000BFF34F8FBB61FEE720E0FA687B6A9A61F3
:100A30007B6A9B69002B09D14FF0500383F3118827
:100A4000BFF36F8FBFF34F8F7B61FEE77B6A9A69BD
:100A50003B6A1344786A19463A6A3B6AFFF742FFD9
:100A600004E0786A02F006F900E000BF084B1A685B
:100A700007F10803104619460022002301F04AFE40
:100A80000346002B7FF474AF2837BD4680BD00BFFE
:100A90004800002080B588B002AF44E02B4B1B68B3
:100AA000DB681B687B61294B1B68DB68DB683B618B
:100AB0003B690433184601F049F93B695B6A3869C0
:100AC00098473B69DB69012B2DD13B699A697B69AA
:100AD0001344FB60FA687B699A420ED93B69FA6855
:100AE0005A603B693A691A61184B1A683B690433CA
:100AF0001046194601F0F2F815E00023009338691A
:100B000000217A690023FFF7B7FDB860BB68002BAE
:100B100009D14FF0500383F31188BFF36F8FBFF3F8
:100B20004F8F3B60FEE7094B1B681B68002BB5D15C
:100B3000064B1B687B60064B1B68044A1360044A23
:100B40007B6813601837BD4680BD00BF40000020A1
:100B50004400002080B582B000AF01F099FA1A4B32
:100B60001B68002B2BD1194801F068F8184801F0D8
:100B700065F8184B154A1A60174B154A1A600A2077
:100B80000C21002201F0EAFB02460F4B1A600E4BCB
:100B90001B68002B09D14FF0500383F31188BFF37A
:100BA0006F8FBFF34F8F7B60FEE7074B1B68002BF7
:100BB00005D0054B1B681846084901F0BFFF01F03E
:100BC00095FA0837BD4680BD480000201800002077
:100BD0002C00002040000020440000201C2F0008B2
:100BE00080B58CB002AFF860B9603B601346FB8003
:100BF000FB68002B09D14FF0500383F31188BFF33A
:100C00006F8FBFF34F8FBB61FEE73B6B042B09D99E
:100C10004FF0500383F31188BFF36F8FBFF34F8FF3
:100C20007B61FEE7FB881846B96B00F0BBFD3862BC
:100C30003B6A002B7AD03B6A1A6BFB8803F1804336
:100C4000013B9B001344FB61FB6923F00703FB613D
:100C5000FB6903F00703002B09D04FF0500383F327
:100C60001188BFF36F8FBFF34F8F3B61FEE7FB88A7
:100C70000093386AB9683A6BFB6B00F093FCF86933
:100C8000F9683A6801F008F902463B6A1A607B6B22
:100C9000002B02D07B6B3A6A1A6001F0F9F9324BF3
:100CA0001B680133304A1360304B1B68002B09D19D
:100CB0002E4A3B6A13602C4B1B68012B0FD100F0AE
:100CC000C3FC0CE02A4B1B68002B08D1274B1B6888
:100CD000DA6A3B6B9A4202D8244A3B6A1360254B7E
:100CE0001B680133234A1360224B1A683B6A1A645B
:100CF0003B6ADB6A1A46012303FA02F21E4B1B68A9
:100D000013431D4A13603B6ADA6A13469B0013447F
:100D10009B001A4A1A443B6A04331046194600F0F5
:100D2000B9FF01237B6201F0E1F902E04FF0FF33EC
:100D30007B627B6A012B11D10D4B1B68002B0DD000
:100D40000A4B1B68DA6A3B6B9A4207D20C4B4FF096
:100D500080521A60BFF34F8FBFF36F8F7B6A1846C4
:100D60002837BD4680BD00BF28010020500000206C
:100D700034010020440100203001002054000020F4
:100D800004ED00E080B586B000AF786000237B61A1
:100D90007B68002B2FD01F4B1B68002B09D04FF016
:100DA000500383F31188BFF36F8FBFF34F8FFB6046
:100DB000FEE700F085F8184B1A687B6813443B6126
:100DC000164B1B680433184600F0C0FF0346002B87
:100DD0000BD1124B1B68DB6A1A4601239340DA439E
:100DE0000F4B1B6813400E4A1360386900F0A4FCD7
:100DF00000F074F878617B69002B07D1094B4FF044
:100E000080521A60BFF34F8FBFF36F8F1837BD4604
:100E100080BD00BF4C0100202C01002050000020AC
:100E20003001002004ED00E080B588B004AF00235D
:100E300000930023019300230293002303931B4894
:100E40001B4982220023FFF7CBFEF860FB68012BD1
:100E500002D1FFF7DDFBF860FB68012B15D14FF0E5
:100E6000500383F31188BFF36F8FBFF34F8FBB60C5
:100E7000104B4FF0FF321A600F4B01221A600F4BDC
:100E800000221A6001F078F80CE0FB68002B09D111
:100E90004FF0500383F31188BFF36F8FBFF34F8F71
:100EA0007B60FEE71037BD4680BD00BF75150008AA
:100EB000242F000848010020340100202C010020CC
:100EC00080B400AF044B1B680133034A1360BD4676
:100ED0005DF8047B704700BF4C01002080B584B0F2
:100EE00000AF0023FB603F4B1B68002B09D14FF084
:100EF000500383F31188BFF36F8FBFF34F8F7B6075
:100F0000FEE701F0C5F8374B1B68013B354A13601B
:100F1000344B1B68002B5DD1334B1B68002B59D021
:100F200030E0324BDB68DB68BB60BB6818331846C7
:100F300000F00CFFBB680433184600F007FFBB68E5
:100F4000DB6A1A46012303FA02F2294B1B6813439A
:100F5000274A1360BB68DA6A13469B0013449B0060
:100F6000244A1A44BB6804331046194600F092FE26
:100F7000BB68DA6A204B1B68DB6A9A4202D31F4BBC
:100F800001221A60194B1B68002BCAD11C4B1B682D
:100F9000002B11D00CE000F047F80346002B02D0E4
:100FA000164B01221A60164B1B68013B144A136052
:100FB000134B1B68002BEED1104B1B68012B09D182
:100FC0000123FB600F4B4FF080521A60BFF34F8F2D
:100FD000BFF36F8F01F08AF8FB6818461037BD46E3
:100FE00080BD00BF4C01002028010020E800002047
:100FF0003001002054000020500000203C0100205F
:101000003801002004ED00E080B483B000AF054B50
:101010001B687B607B6818460C37BD465DF8047B17
:10102000704700BF2C01002080B586B000AF0023C0
:101030007B61524B1B68002B40F08F80504B1B682C
:1010400001334F4A13604E4B1B683B613B69002BD9
:101050001FD14C4B1B681B68002B09D04FF050036D
:1010600083F31188BFF36F8FBFF34F8F3B60FEE7B1
:10107000444B1B68FB60444B1B68424A1360424A66
:10108000FB681360414B1B680133404A136000F05A
:10109000D1FB3F4B1B683A699A424FD3394B1B68CF
:1010A0001B68002B01D1012300E00023002B04D09A
:1010B000374B4FF0FF321A6040E0324B1B68DB6861
:1010C000DB68BB60BB685B687B603A697B689A429F
:1010D00003D22F4A7B68136030E0BB6804331846A4
:1010E00000F034FEBB689B6A002B04D0BB68183349
:1010F000184600F02BFEBB68DB6A1A46012303FA90
:1011000002F2244B1B681343224A1360BB68DA6A5D
:1011100013469B0013449B001F4A1A44BB680433C8
:101120001046194600F0B6FDBB68DA6A1B4B1B6817
:10113000DB6A9A4201D301237B61AFE7174B1B683F
:10114000DA6A154913469B0013449B000B441B6845
:10115000012B07D901237B6104E0114B1B6801338C
:101160000F4A13600F4B1B68002B01D001237B61DA
:101170007B6918461837BD4680BD00BF4C01002072
:101180002C010020E0000020E400002040010020AD
:1011900048010020300100205400002050000020B1
:1011A000380100203C01002080B487B000AF264BFE
:1011B0001B68002B03D0254B01221A603EE0234B15
:1011C00000221A60224B1B68FB60FB68B3FA83F3B2
:1011D000FB72FB7AC3F11F037B611E497A691346D8
:1011E0009B0013449B000B441B68002B09D14FF05C
:1011F000500383F31188BFF36F8FBFF34F8F7B6072
:10120000FEE77A6913469B0013449B00114A13447E
:101210003B613B695B685A683B695A603B695A6845
:101220003B6908339A4204D13B695B685A683B6961
:101230005A603B695B68DB68074A13601C37BD4630
:101240005DF8047B704700BF4C0100203C0100208A
:1012500030010020540000205000002080B584B0F0
:1012600000AF786039607B68002B09D14FF05003E4
:1012700083F31188BFF36F8FBFF34F8FBB60FEE71F
:10128000194B1B6818337868194600F027FD164B78
:101290001B680433184600F059FD0346002B0BD1A0
:1012A000114B1B68DB6A1A4601239340DA430F4B4C
:1012B0001B6813400D4A13603B68B3F1FF3F07D131
:1012C000094B1B6804330A48194600F0E3FC07E0A9
:1012D000084B1A683B681344FB60F86800F02CFA6E
:1012E0001037BD4680BD00BF5000002030010020F7
:1012F000140100202C01002080B586B000AFF860FA
:10130000B9607A60FB68002B09D14FF0500383F37A
:101310001188BFF36F8FBFF34F8F3B61FEE7194B0F
:101320001B681833F868194600F0B4FC154B1B68AD
:101330000433184600F00AFD0346002B0BD1114B75
:101340001B68DB6A1A4601239340DA430E4B1B6885
:1013500013400D4A13607B68012B07D1094B1B68B2
:1013600004330A48194600F095FC07E0084B1A6858
:10137000BB6813447B61786900F0DEF91837BD461D
:1013800080BD00BF5000002030010020140100206B
:101390002C01002080B586B000AF78607B68DB68E8
:1013A000DB683B613B69002B09D14FF0500383F3AD
:1013B0001188BFF36F8FBFF34F8FFB60FEE73B6970
:1013C0001833184600F0C2FC1E4B1B68002B1ED1C0
:1013D0003B690433184600F0B9FC3B69DB6A1A46E6
:1013E000012303FA02F2184B1B681343164A1360D9
:1013F0003B69DA6A13469B0013449B00134A1A4464
:101400003B6904331046194600F044FC05E03B6993
:1014100018330F48194600F03DFC3B69DA6A0D4B62
:101420001B68DB6A9A4205D901237B610A4B0122C2
:101430001A6001E000237B617B6918461837BD46BE
:1014400080BD00BF4C01002030010020540000206E
:10145000E8000020500000203C01002080B485B04E
:1014600000AF78607B68002B09D14FF0500383F305
:101470001188BFF36F8FBFF34F8FFB60FEE7064B02
:101480001A687B681A60054B1A687B685A601437C3
:10149000BD465DF8047B7047400100202C01002010
:1014A00080B586B000AF786039607B68002B09D1C9
:1014B0004FF0500383F31188BFF36F8FBFF34F8F4B
:1014C000FB60FEE73B68002B09D14FF0500383F32C
:1014D0001188BFF36F8FBFF34F8FBB60FEE700F043
:1014E000D7FD1C4B1B683B613B681B68B3F1FF3F9A
:1014F00002D100237B6126E07B681A68164B1B68CB
:101500009A4207D07B685A683B699A4202D8012305
:101510007B6118E07B685B683A69D21A3B681B689C
:101520009A420ED23B681A687B6859683B69CB1AAD
:101530001A443B681A607868FFF790FF00237B61CC
:1015400001E001237B6100F0D1FD7B69184618376B
:10155000BD4680BD2C0100204001002080B400AFBA
:10156000034B01221A60BD465DF8047B704700BF43
:101570003C01002080B582B000AF786000F0A2F896
:10158000064B1B68012B07D9054B4FF080521A60A0
:10159000BFF34F8FBFF36F8FF0E700BF5400002001
:1015A00004ED00E080B586B000AFF860B9607A6005
:1015B0003B6000237B6113E0BA687B6913441978B0
:1015C000FA687B69134430330A461A71BA687B693A
:1015D00013441B78002B00D105E07B6901337B614C
:1015E0007B69092BE8D9FB68002283F83D207B68E2
:1015F000042B01D904237B60FB687A68DA62FB68FC
:101600007A689A64FB680022DA64FB68043318463F
:1016100000F034FBFB681833184600F02FFBFB6822
:10162000FA681A617B68C3F10502FB689A61FB687E
:10163000FA685A62FB6800221A65FB68002283F888
:1016400054201837BD4680BD80B582B000AF00235E
:101650007B600CE07A6813469B0013449B00114AA0
:101660001344184600F0EAFA7B6801337B607B681C
:10167000042BEFD90C4800F0E1FA0C4800F0DEFA38
:101680000B4800F0DBFA0B4800F0D8FA0A4800F0EB
:10169000D5FA0A4B044A1A60094B044A1A60083703
:1016A000BD4680BD54000020B8000020CC000020C2
:1016B000E8000020FC00002014010020E0000020D1
:1016C000E400002080B582B000AF28E0FFF7F8FB0F
:1016D000164B1B68002B0CBF01230023DBB27B6081
:1016E000FFF7FCFB7B68002B19D100F0D1FC0F4BFE
:1016F000DB68DB683B603B680433184600F026FB80
:101700000B4B1B68013B0A4A13600A4B1B68013BE9
:10171000084A136000F0EAFC386800F07BF8054BDB
:101720001B68002BD2D10837BD4680BDFC000020CD
:10173000280100201001002080B582B000AF786041
:10174000134B1B687A685A60124B1B687A689A427E
:1017500009D2114B1A680E4B1B6804331046194608
:1017600000F0BCFA10E00D4B1A68094B1B680433FB
:101770001046194600F0B2FA094B1B687A689A4283
:1017800002D2074A7B6813600837BD4680BD00BFA0
:10179000500000202C010020E4000020E000002088
:1017A0004801002080B584B000AF03463960FB805B
:1017B0003B68002B06D1FB889B00184601F014FA09
:1017C000034600E03B68BB60BB68002B0ED058208E
:1017D00001F00AFAF860FB68002B03D0FB68BA68D6
:1017E0001A6305E0B86801F045FA01E00023FB60E8
:1017F000FB68002B08D0FB681A6BFB889B00104627
:10180000A5211A4601F022FBFB6818461037BD4699
:1018100080BD00BF80B582B000AF78607B681B6B75
:10182000184601F027FA786801F024FA0837BD4617
:1018300080BD00BF80B483B000AF0E4B1B681B6837
:10184000002B01D1012300E00023002B04D00A4B20
:101850004FF0FF321A6008E0064B1B68DB68DB685C
:101860007B607B685B68044A13600C37BD465DF89B
:10187000047B7047E00000204801002080B483B062
:1018800000AF0B4B1B68002B02D101237B6008E0EB
:10189000084B1B68002B02D102237B6001E0002370
:1018A0007B607B6818460C37BD465DF8047B70474B
:1018B000340100204C01002080B584B000AF786076
:1018C0007B68FB607B68002B64D0FB68DA6A334B73
:1018D0001B68DB6A9A425DD2FB689B69002B06DBC2
:1018E0002E4B1B68DB6AC3F10502FB689A61FB683B
:1018F0005969FB68DA6A13469B0013449B00284A27
:101900001344994201D1012300E00023002B3CD075
:10191000FB680433184600F019FA0346002B15D172
:10192000FB68DA6A1E4913469B0013449B000B4474
:101930001B68002B0AD1FB68DB6A1A46012393401F
:10194000DA43184B1B681340164A1360134B1B688D
:10195000DA6AFB68DA62FB68DB6A1A46012303FA7B
:1019600002F2104B1B6813430E4A1360FB68DA6ADD
:1019700013469B0013449B00094A1A44FB68043336
:101980001046194600F086F904E0044B1B68DA6A39
:10199000FB68DA621037BD4680BD00BF50000020F2
:1019A000540000203001002080B586B000AF786080
:1019B0007B683B6100237B617B68002B6ED03A4BD8
:1019C0001B683A699A4209D04FF0500383F311889B
:1019D000BFF36F8FBFF34F8FFB60FEE73B69DB6C9C
:1019E000002B09D14FF0500383F31188BFF36F8FA1
:1019F000BFF34F8FBB60FEE73B69DB6C5A1E3B6950
:101A0000DA643B69DA6A3B699B6C9A4246D03B696F
:101A1000DB6C002B42D13B690433184600F096F989
:101A20000346002B15D13B69DA6A204913469B0017
:101A300013449B000B441B68002B0AD13B69DB6AF3
:101A40001A4601239340DA43194B1B681340184A86
:101A500013603B699A6C3B69DA623B69DB6AC3F1EC
:101A600005023B699A613B69DB6A1A46012303FA66
:101A700002F20F4B1B6813430D4A13603B69DA6A8D
:101A800013469B0013449B00084A1A443B690433E5
:101A90001046194600F0FEF801237B617B69184669
:101AA0001837BD4680BD00BF500000205400002004
:101AB0003001002080B400AF074B1B68002B04D01E
:101AC000054B1B68DA6C0132DA64034B1B6818465D
:101AD000BD465DF8047B70475000002080B487B09D
:101AE00000AF7860396000237B6100233B610023F5
:101AF000FB6000237B6176E07B69012202FA03F33D
:101B00003B613B681A683B691340FB60FA683B69BC
:101B10009A4265D17B681A687B695B00194603238A
:101B20008B40DB431A407B681A607B681A683B680D
:101B30001B7919467B695B0001FA03F31A437B6842
:101B40001A603B681B79012B03D03B681B79022B81
:101B50002ED17B689A687B695B00194603238B4012
:101B6000DB431A407B689A607B689A683B685B79C4
:101B700019467B695B0001FA03F31A437B689A609C
:101B80007B685A687B699BB2194601238B40DB4313
:101B90001A407B685A607B685B683A6892791146A4
:101BA0007A6992B201FA02F292B21A437B685A60E1
:101BB0007B68DA687B699BB25B00032101FA03F35F
:101BC000DB431A407B68DA607B68DA683B68DB7964
:101BD00019467B695B0001FA03F31A437B68DA60FC
:101BE0007B6901337B617B690F2B85D91C37BD462F
:101BF0005DF8047B704700BF80B483B000AF7860AD
:101C00000B467B807B685A697B885A407B685A61A7
:101C10000C37BD465DF8047B704700BF80B483B0CD
:101C200000AF7860044B7A68D2B21A700C37BD46A8
:101C30005DF8047B704700BF003C024080B483B075
:101C400000AF78607B6803F108027B685A607B68AC
:101C50004FF0FF329A607B6803F108027B68DA601C
:101C60007B6803F108027B681A617B6800221A60B6
:101C70000C37BD465DF8047B704700BF80B483B06D
:101C800000AF78607B6800221A610C37BD465DF8B2
:101C9000047B704780B485B000AF786039607B68A2
:101CA0005B68FB603B68FA685A60FB689A683B684F
:101CB0009A60FB689B683A685A60FB683A689A6069
:101CC0003B687A681A617B681B685A1C7B681A60DB
:101CD0001437BD465DF8047B704700BF80B485B003
:101CE00000AF786039603B681B68BB60BB68B3F1CC
:101CF000FF3F03D17B681B69FB600CE07B68083306
:101D0000FB6002E0FB685B68FB60FB685B681A686D
:101D1000BB689A42F6D9FB685A683B685A603B68D0
:101D20005B683A689A603B68FA689A60FB683A6850
:101D30005A603B687A681A617B681B685A1C7B682A
:101D40001A601437BD465DF8047B704780B485B0D7
:101D500000AF78607B681B69FB607B685B687A68B2
:101D600092689A607B689B687A6852685A60FB68E0
:101D70005A687B689A4203D17B689A68FB685A600C
:101D80007B6800221A61FB681B685A1EFB681A6098
:101D9000FB681B6818461437BD465DF8047B704726
:101DA00080B487B000AF00233B6100237B61022336
:101DB000FB600023BB6002237B60324B9B6803F017
:101DC0000C033B613B69042B07D0082B09D0002B87
:101DD0003FD12D4B2D4A1A603FE02B4B2C4A1A6005
:101DE0003BE0284B5B6803F480039B0DBB60254BF5
:101DF0005B6803F03F037B60BB68002B0DD0244A77
:101E00007B68B2FBF3F21F4B596847F6C0730B4077
:101E10009B0903FB02F37B610CE01C4A7B68B2FB6D
:101E2000F3F2184B596847F6C0730B409B0903FB4C
:101E300002F37B61134B5B6803F440331B0C0133EB
:101E40005B00FB607A69FB68B2FBF3F30E4A136038
:101E500003E00D4B0D4A1A6000BF0A4B9B6803F06C
:101E6000F0031B090B4AD35CDBB23B61064B1A68DB
:101E70003B6922FA03F3044A13601C37BD465DF840
:101E8000047B704700380240000000200024F4006A
:101E900000127A000400002080B485B000AFF86022
:101EA000B9607A60FB68043BFB60FB684FF08072AE
:101EB0001A60FB68043BFB60BA68FB681A60FB6849
:101EC000043BFB600C4AFB681A60FB68143BFB6038
:101ED0007A68FB681A60FB68043BFB60FB686FF084
:101EE00002021A60FB68203BFB60FB68184614374F
:101EF000BD465DF8047B7047FD1E000880B483B0CA
:101F000000AF0C4B1B68B3F1FF3F09D04FF05003FB
:101F100083F31188BFF36F8FBFF34F8F7B60FEE7B2
:101F20004FF0500383F31188BFF36F8FBFF34F8FD0
:101F30003B60FEE714000020064B19680868B0E813
:101F4000F04F80F30988BFF36F8F4FF0000080F3EC
:101F5000118870475000002006480068006880F330
:101F6000088862B661B6BFF34F8FBFF36F8F00DF93
:101F700000BF000008ED00E080B586B000AF3B4B2D
:101F80001B683B4A934209D14FF0500383F31188F9
:101F9000BFF36F8FBFF34F8F3B61FEE7334B1B687F
:101FA000344A934209D14FF0500383F31188BFF3B1
:101FB0006F8FBFF34F8FFB60FEE72F4B7B617B6919
:101FC0001B78DBB2BB607B69FF221A707B691B78D0
:101FD000DBB2FB71FB79DBB203F05003DAB2274BC3
:101FE0001A70274B07221A6009E0254B1B68013B3A
:101FF000234A1360FB79DBB25B00DBB2FB71FB7938
:10200000DBB2DBB25BB2002BEFDB1D4B1B681B02AC
:102010001B4A13601A4B1B6803F4E063184A1360F1
:10202000BB68DAB27B691A70164A164B1B6843F418
:1020300070031360134A134B1B6843F07043136023
:1020400000F0CCF8104B00221A6000F0D9F80F4ACB
:102050000E4B1B6843F040431360FFF77DFFFFF713
:102060004DFF002318461837BD4680BD00ED00E047
:1020700071C20F4170C20F4100E400E05001002026
:102080005401002020ED00E01400002034EF00E0B7
:1020900080B483B000AF4FF0500383F31188BFF3D7
:1020A0006F8FBFF34F8F7B600E4B1B6801330D4A60
:1020B00013600C4B1B68012B0ED10B4B1B68DBB262
:1020C000002B09D04FF0500383F31188BFF36F8FBB
:1020D000BFF34F8F3B60FEE70C37BD465DF8047BD6
:1020E000704700BF1400002004ED00E080B483B00E
:1020F00000AF104B1B68002B09D14FF0500383F346
:102100001188BFF36F8FBFF34F8F7B60FEE7094BE2
:102110001B68013B074A1360064B1B68002B04D168
:1021200000233B603B6883F311880C37BD465DF8A4
:10213000047B704714000020EFF30980BFF36F8F1A
:10214000144B1A681EF0100F08BF20ED108A20E90A
:10215000F04F10604DF8043D4FF0500080F31188AF
:10216000BFF34F8FBFF36F8FFFF71EF84FF00000E4
:1021700080F3118808BC19680868B0E8F04F1EF0B9
:10218000100F08BFB0EC108A80F30988BFF36F8F7F
:10219000704700BF5000002080B584B000AFEFF35F
:1021A00011824FF0500383F31188BFF36F8FBFF399
:1021B0004F8FFA60BB60FEF737FF0346002B03D05A
:1021C000054B4FF080521A6000237B607B6883F3DD
:1021D00011881037BD4680BD04ED00E080B400AF2B
:1021E000044B054A1A60054B07221A60BD465DF88C
:1021F000047B704714E000E03F90020010E000E034
:10220000DFF80C00016841F47001016070470000C4
:1022100088ED00E080B485B000AFEFF30583FB608C
:10222000FB680F2B13D9154AFB6813441B78FB720C
:10223000134B1B78FA7A9A4209D24FF0500383F37A
:102240001188BFF36F8FBFF34F8F7B60FEE70D4B9D
:102250001B6803F4E0620C4B1B689A4209D94FF0EB
:10226000500383F31188BFF36F8FBFF34F8F3B6031
:10227000FEE71437BD465DF8047B7047F0E300E0ED
:10228000500100200CED00E05401002080B584B026
:1022900000AF786039607B68FB60FB68002B09D178
:1022A0004FF0500383F31188BFF36F8FBFF34F8F4D
:1022B000BB60FEE7FFF7ECFEFB681A68FB68DB6BB0
:1022C000F968096C01FB03F31A44FB685A60FB6868
:1022D00000229A63FB681A68FB689A60FB681A68B8
:1022E000FB68DB6B013BF968096C01FB03F31A44E3
:1022F000FB68DA60FB684FF0FF325A64FB684FF00E
:10230000FF329A643B68002B14D1FB681B69002BD9
:102310001AD0FB6810331846FFF73CF80346012B30
:1023200012D10D4B4FF080521A60BFF34F8FBFF3A5
:102330006F8F09E0FB6810331846FFF77FFCFB68DE
:1023400024331846FFF77AFCFFF7D0FE0123184626
:102350001037BD4680BD00BF04ED00E080B58AB0F7
:1023600000AFF860B9601346FB7100233B62FB6865
:10237000002B09D14FF0500383F31188BFF36F8F07
:10238000BFF34F8FBB61FEE7BB68002B02D1002378
:102390007B6205E0FB68BA6802FB03F301337B62F2
:1023A0007B6A5433184600F01FFCF861FB69002B70
:1023B0001BD0BB68002B03D1FB69FA691A6004E0EB
:1023C000FB6903F15402FB691A60FB69FA68DA637E
:1023D000FB69BA681A64F8690121FFF757FFFB69C6
:1023E000FA7983F85020FB693B623B6A002B09D1E4
:1023F0004FF0500383F31188BFF36F8FBFF34F8FFC
:102400007B61FEE73B6A18462837BD4680BD00BFAA
:1024100080B58EB000AFF860B9607A603B60002391
:102420007B63FB683B633B6B002B09D14FF0500390
:1024300083F31188BFF36F8FBFF34F8FBB62FEE74B
:10244000BB68002B03D13B6B1B6C002B01D101231C
:1024500000E00023002B09D14FF0500383F31188D3
:10246000BFF36F8FBFF34F8F7B62FEE73B68022B9A
:1024700003D13B6BDB6B012B01D1012300E0002377
:10248000002B09D14FF0500383F31188BFF36F8FF6
:10249000BFF34F8F3B62FEE7FFF7F0F90346002BD7
:1024A00002D17B68002B01D1012300E00023002B27
:1024B00009D14FF0500383F31188BFF36F8FBFF33F
:1024C0004F8FFB61FEE7FFF7E3FD3B6B9A6B3B6BC6
:1024D000DB6B9A4202D33B68022B29D1386BB96877
:1024E0003A6800F01DFAF8623B6B5B6A002B10D073
:1024F0003B6B24331846FEF74DFF0346012B13D1E7
:102500003D4B4FF080521A60BFF34F8FBFF36F8F78
:102510000AE0FB6A002B07D0374B4FF080521A605D
:10252000BFF34F8FBFF36F8FFFF7E0FD01235FE035
:102530007B68002B03D1FFF7D9FD002358E07B6BAC
:10254000002B06D107F114031846FEF787FF01237D
:102550007B63FFF7CBFDFEF7B3FCFFF799FD3B6B09
:102560005B6CB3F1FF3F02D13B6B00225A643B6BC3
:102570009B6CB3F1FF3F02D13B6B00229A64FFF7E3
:10258000B5FD07F114023B1D10461946FEF788FF02
:102590000346002B24D1386B00F0B8FA0346002B19
:1025A00018D03B6B03F110027B6810461946FEF70A
:1025B00055FE386B00F048FAFEF790FC0346002BFE
:1025C00015D10D4B4FF080521A60BFF34F8FBFF300
:1025D0006F8F0CE0386B00F037FAFEF77FFC72E784
:1025E000386B00F031FAFEF779FC002300E06AE76F
:1025F00018463837BD4680BD04ED00E080B58EB08A
:1026000000AFF860B9607A603B60FB683B633B6B8E
:10261000002B09D14FF0500383F31188BFF36F8F64
:10262000BFF34F8FBB62FEE7BB68002B03D13B6B50
:102630001B6C002B01D1012300E00023002B09D1EA
:102640004FF0500383F31188BFF36F8FBFF34F8FA9
:102650007B62FEE73B68022B03D13B6BDB6B012BFC
:1026600001D1012300E00023002B09D14FF05003DA
:1026700083F31188BFF36F8FBFF34F8F3B62FEE789
:10268000FFF7C8FDEFF311824FF0500383F3118879
:10269000BFF36F8FBFF34F8FFA61BB61FB69FB62C2
:1026A0003B6B9A6B3B6BDB6B9A4202D33B68022B12
:1026B00024D1386BB9683A6800F032F93B6B9B6CF7
:1026C000B3F1FF3F12D13B6B5B6A002B13D03B6B26
:1026D00024331846FEF75EFE0346002B0BD07B68C2
:1026E000002B08D07B6801221A6004E03B6B9B6CD6
:1026F0005A1C3B6B9A6401237B6301E000237B63DC
:10270000FB6A7B617B6983F311887B6B18463837E2
:10271000BD4680BD80B58CB000AFF860B9607A600E
:102720003B600023FB62FB68BB62BB6A002B09D1E4
:102730004FF0500383F31188BFF36F8FBFF34F8FB8
:102740003B62FEE7BB68002B03D1BB6A1B6C002B0E
:1027500001D1012300E00023002B09D14FF05003E9
:1027600083F31188BFF36F8FBFF34F8FFB61FEE7D9
:10277000FFF784F80346002B02D17B68002B01D1C0
:10278000012300E00023002B09D14FF0500383F315
:102790001188BFF36F8FBFF34F8FBB61FEE7FFF769
:1027A00077FCBB6A9B6B002B47D0BB6ADB687B6204
:1027B000B86AB96800F022F93B68002B22D1BB6AE5
:1027C0009B6B5A1EBB6A9A63BB6A1B68002B04D1C1
:1027D000FFF770F90246BB6A5A60BB6A1B69002B9F
:1027E00027D0BB6A10331846FEF7D4FD0346012BF1
:1027F0001FD14A4B4FF080521A60BFF34F8FBFF387
:102800006F8F16E0BB6A7A6ADA60BB6A5B6A002B7C
:102810000FD0BB6A24331846FEF7BCFD0346002BDD
:1028200007D03E4B4FF080521A60BFF34F8FBFF37B
:102830006F8FFFF75BFC01236CE07B68002B03D1FB
:10284000FFF754FC002365E0FB6A002B06D107F17B
:1028500010031846FEF702FE0123FB62FFF746FC59
:10286000FEF72EFBFFF714FCBB6A5B6CB3F1FF3F76
:1028700002D1BB6A00225A64BB6A9B6CB3F1FF3F72
:1028800002D1BB6A00229A64FFF730FC07F1100204
:102890003B1D10461946FEF703FE0346002B31D1BF
:1028A000B86A00F01DF90346002B25D0BB6A1B68EF
:1028B000002B08D1FFF7ECFBBB6A5B681846FEF7FC
:1028C000FBFFFFF713FCBB6A03F124027B68104691
:1028D0001946FEF7C3FCB86A00F0B6F8FEF7FEFA38
:1028E0000346002B15D10D4B4FF080521A60BFF3F9
:1028F0004F8FBFF36F8F0CE0B86A00F0A5F8FEF7BA
:10290000EDFA4CE7B86A00F09FF8FEF7E7FA00230B
:1029100000E044E718463037BD4680BD04ED00E0D6
:1029200080B586B000AFF860B9607A6000237B6143
:10293000FB681B6C002B0DD1FB681B68002B52D170
:10294000FB685B681846FFF72FF87861FB68002288
:102950005A6048E07B68002B1AD1FB689A68FB68D4
:102960001B6C1046B9681A4600F0D6F9FB689A68E5
:10297000FB681B6C1A44FB689A60FB689A68FB68EA
:102980005B689A422FD3FB681A68FB689A602AE05A
:10299000FB68DA68FB681B6C1046B9681A4600F0E1
:1029A000BBF9FB68DA68FB681B6C5B421A44FB6886
:1029B000DA60FB68DA68FB681B689A4207D2FB683A
:1029C0005A68FB681B6C5B421A44FB68DA607B68E0
:1029D000022B08D1FB689B6B002B04D0FB689B6B20
:1029E0005A1EFB689A63FB689B6B5A1CFB689A63D0
:1029F0007B6918461837BD4680BD00BF80B582B0E0
:102A000000AF786039607B681B6C002B19D07B6845
:102A1000DA687B681B6C1A447B68DA607B68DA686A
:102A20007B685B689A4203D37B681A687B68DA60CC
:102A30007B68DA687B681B6C386811461A4600F0C0
:102A40006BF90837BD4680BD80B582B000AF7860B5
:102A5000FFF71EFB14E07B685B6A002B0AD07B68E3
:102A600024331846FEF796FC0346002B03D0FEF7EE
:102A700075FD00E008E07B689B6C5A1E7B689A64D9
:102A80007B689B6C002BE6DC7B684FF0FF329A641E
:102A9000FFF72CFBFFF7FCFA14E07B681B69002BA7
:102AA0000FD07B6810331846FEF774FC0346002BEA
:102AB00001D0FEF753FD7B685B6C5A1E7B685A643D
:102AC00000E003E07B685B6C002BE6DC7B684FF08A
:102AD000FF325A64FFF70AFB0837BD4680BD00BFCE
:102AE00080B584B000AF7860FFF7D2FA7B689B6B4B
:102AF000002B02D10123FB6001E00023FB60FFF704
:102B0000F5FAFB6818461037BD4680BD80B584B025
:102B100000AF7860FFF7BCFA7B689A6B7B68DB6B71
:102B20009A4202D10123FB6001E00023FB60FFF722
:102B3000DDFAFB6818461037BD4680BD80B485B00D
:102B400000AF786039600023FB6014E00E4AFB6838
:102B500052F83330002B0BD10B49FB683A6841F82F
:102B60003320094AFB68DB0013447A685A6005E0A9
:102B7000FB680133FB60FB68072BE7D91437BD46C0
:102B80005DF8047B704700BF602D012080B586B0E2
:102B900000AFF860B9607A60FB687B61FFF778FA94
:102BA0007B695B6CB3F1FF3F02D17B6900225A6401
:102BB0007B699B6CB3F1FF3F02D17B6900229A6471
:102BC000FFF794FA7B699B6B002B06D17B6924335A
:102BD0001846B9687A68FEF78FFB7869FFF734FF0B
:102BE0001837BD4680BD00BF80B584B000AF7860A7
:102BF0000023FB607B6803F00703002B04D07B6895
:102C000023F0070308337B60FEF75AF9154B1B6866
:102C1000002B05D1144B23F007031A46114B1A6001
:102C2000124B1A687B681344114A934213D80F4B16
:102C30001A687B681A440D4B1B689A420BD9094BE2
:102C40001A680A4B1B681344FB60084B1A687B68C0
:102C50001344064A1360FEF741F9FB681846103723
:102C6000BD4680BD5C2D012060010020582D012053
:102C7000F72B010080B485B000AF78607B68002B33
:102C800009D04FF0500383F31188BFF36F8FBFF368
:102C90004F8FFB60FEE71437BD465DF8047B70473D
:102CA00080B584B002AFFDF75BFB0120FDF780FB30
:102CB000FDF790FB0346FB71FB79012B26D107231F
:102CC00000934FF4800008214FF4A8720223FDF70F
:102CD000A9FB0120FDF7C4FB00BF3920FDF75EFC16
:102CE0000346002BF9D00520FEF798FF0020FDF7E2
:102CF000E3FB4FF4A050FDF7FBFB4FF48050FDF7D2
:102D000013FC0220FDF7BCFB012300E00023184662
:102D10000837BD4680BD00BF844641EA000313F07A
:102D200003036DD1403A41D351F8043B40F8043BD2
:102D300051F8043B40F8043B51F8043B40F8043B95
:102D400051F8043B40F8043B51F8043B40F8043B85
:102D500051F8043B40F8043B51F8043B40F8043B75
:102D600051F8043B40F8043B51F8043B40F8043B65
:102D700051F8043B40F8043B51F8043B40F8043B55
:102D800051F8043B40F8043B51F8043B40F8043B45
:102D900051F8043B40F8043B51F8043B40F8043B35
:102DA00051F8043B40F8043B403ABDD2303211D3D5
:102DB00051F8043B40F8043B51F8043B40F8043B15
:102DC00051F8043B40F8043B51F8043B40F8043B05
:102DD000103AEDD20C3205D351F8043B40F8043BD5
:102DE000043AF9D2043208D0D2071CBF11F8013BD3
:102DF00000F8013B01D30B8803806046704700BF99
:102E0000082A13D38B078DD010F003038AD0C3F1A7
:102E10000403D21ADB071CBF11F8013B00F8013B89
:102E200080D331F8023B20F8023B7BE7043AD9D348
:102E3000013A11F8013B00F8013BF9D20B7803701D
:102E40004B7843708B7883706046704770B484070A
:102E500046D0541E002A41D0CDB2034602E0621E85
:102E6000E4B3144603F8015B9A07F8D1032C2ED97A
:102E7000CDB245EA05250F2C45EA054519D903F1E0
:102E800010022646103E0F2E42F8105C42F80C5CF1
:102E900042F8085C42F8045C02F11002F2D8A4F196
:102EA000100222F00F0204F00F041032032C13441E
:102EB0000DD91E462246043A032A46F8045BFAD886
:102EC000221F22F003020432134404F003042CB145
:102ED000C9B21C4403F8011BA342FBD170BC70476C
:102EE00014460346C2E700BF4C45442052656400C7
:102EF0004C4544204F72616E676500004C4544208C
:102F0000477265656E0000004C454420426C756553
:102F100000000000546D722053766300546D7251AE
:0C2F20000000000049444C450000000087
:102F2C00007A030A00000000000000000102030404
:082F3C0006070809AAAAAAAAC7
:0400000508000000EF
:00000001FF
