:020000040800F2
:1000000018080020B10200080903000809030008CD
:1000100009030008090300080903000800000000A4
:1000200000000000000000000000000009030008BC
:10003000090300080000000009030008410200084D
:100040000903000809030008090300080903000860
:100050000903000809030008090300080903000850
:100060000903000809030008090300080903000840
:100070000903000809030008090300080903000830
:100080000903000809030008090300080903000820
:100090000903000809030008090300080903000810
:1000A0000903000809030008090300080903000800
:1000B00009030008090300080903000809030008F0
:1000C00009030008090300080903000809030008E0
:1000D00009030008090300080903000809030008D0
:1000E00009030008090300080903000809030008C0
:1000F00009030008090300080903000809030008B0
:10010000090300080903000809030008090300089F
:10011000090300080903000809030008090300088F
:10012000090300080903000809030008090300087F
:10013000090300080903000809030008090300086F
:10014000090300080903000809030008090300085F
:10015000090300080903000809030008090300084F
:10016000090300080903000809030008090300083F
:10017000090300080903000809030008090300082F
:10018000090300080903000880B483B000AF0346E8
:100190003960FB7197F90730002B0BDA0D49FB79B9
:1001A00003F00F03043B3A68D2B21201D2B20B44FF
:1001B0001A7609E0084997F907303A68D2B2120175
:1001C000D2B20B4483F800230C37BD465DF8047BA4
:1001D000704700BF00ED00E000E100E080B582B0B4
:1001E00000AF78607B68B3F1807F01D3012311E019
:1001F0000A4A7B6823F07F43013B53604FF0FF3096
:100200000F21FFF7C1FF054B00229A60034B072225
:100210001A60002318460837BD4680BD10E000E094
:1002200080B500AF044B1B68044AA2FB03239B0C60
:100230001846FFF7D3FF80BD0000002083DE1B437C
:1002400080B400AF064B1B68002B04D0044B1B6826
:10025000013B034A1360BD465DF8047B704700BF55
:100260001400002080B483B000AF7860064A7B6839
:10027000136000BF044B1B68002BFBD10C37BD463D
:100280005DF8047B704700BF1400002080B582B089
:1002900000AF786003E04FF47A70FFF7E3FF7B680C
:1002A0005A1E7A60002BF6D10837BD4680BD00BFCC
:1002B00080B582B000AF0F4B7B600F4B3B6007E017
:1002C0003B681A1D3A607A68111D796012681A60DD
:1002D0003B680A4A9342F3D309480A494FF00002A7
:1002E0008842B8BF40F8042BFADB00F011F8083759
:1002F000BD4680BDE8070008000000201400002073
:10030000140000201800002080B400AFFEE700BFFA
:1003100080B582B000AF00F02BFAFFF781FF082014
:10032000012100F01DF94FF400533B6001233B71A4
:100330000023BB710023FB7100237B713B46074800
:10034000194600F065F905484FF4005100F0EEF948
:100350004FF47A70FFF79AFFF5E700BF000C0240F8
:1003600080B400AF104A104B1B6843F001031360C8
:100370000D4B00229A600C4A0B4B1B6823F08473D0
:1003800023F480331360084B084A5A60064A064B30
:100390001B6823F480231360034B0022DA60BD4600
:1003A0005DF8047B704700BF003802401030002425
:1003B00080B483B000AF0346FB71054B00221A7076
:1003C000034AFB7913700C37BD465DF8047B704718
:1003D0000238024080B582B000AF00233B600023AA
:1003E000FB710023BB71312000F0D8F80346BB71CC
:1003F0003B6801333B603B68B3F5A06F02D0BB792B
:10040000002BF0D0312000F0C9F80346002B02D0B9
:100410000123FB7101E00023FB71FB7918460837CB
:10042000BD4680BD80B485B000AFF860B9607A6029
:100430003B600A497B689A01BB681A433B685B08CA
:10044000013B1B041A43FB681A43BB691B06134399
:100450004B601437BD465DF8047B7047003802409E
:1004600080B483B000AF0346FB71044AFB7913608C
:100470000C37BD465DF8047B704700BF6000474203
:1004800080B485B000AF78600023FB60094B9B68A7
:10049000FB60FB6823F00303FB60FA687B6813438F
:1004A000FB60044AFB6893601437BD465DF8047B2B
:1004B000704700BF0038024080B485B000AF78605C
:1004C0000023FB60094B9B68FB60FB6823F0F00393
:1004D000FB60FA687B681343FB60044AFB68936027
:1004E0001437BD465DF8047B704700BF00380240FA
:1004F00080B485B000AF78600023FB60094B9B6837
:10050000FB60FB6823F4E053FB60FA687B681343ED
:10051000FB60044AFB6893601437BD465DF8047BBA
:10052000704700BF0038024080B485B000AF7860EB
:100530000023FB60094B9B68FB60FB6823F460436E
:10054000FB607B68DB00FA681343FB60034AFB68CF
:1005500093601437BD465DF8047B70470038024055
:1005600080B483B000AF78600B46FB70FB78002B43
:1005700006D00949084B1A6B7B6813430B6306E0EE
:100580000549054B1A6B7B68DB4313400B630C3743
:10059000BD465DF8047B70470038024080B487B0E8
:1005A00000AF0346FB710023FB6000237B61002347
:1005B000FB74FB795B09DBB2FB60FB68012B03D1A9
:1005C000124B1B687B6109E0FB68022B03D10F4BC8
:1005D0001B6F7B6102E00D4B5B6F7B61FB7903F06E
:1005E0001F03FB60FB687A6922FA03F303F001033F
:1005F000002B02D00123FB7401E00023FB74FB7C81
:1006000018461C37BD465DF8047B70470038024031
:1006100080B487B000AF7860396000237B6100232D
:100620003B610023FB6000237B6176E07B69012254
:1006300002FA03F33B613B681A683B691340FB60B5
:10064000FA683B699A4265D17B681A687B695B00EE
:10065000194603238B40DB431A407B681A607B6892
:100660001A683B681B7919467B695B0001FA03F342
:100670001A437B681A603B681B79012B03D03B68E7
:100680001B79022B2ED17B689A687B695B00194627
:1006900003238B40DB431A407B689A607B689A682F
:1006A0003B685B7919467B695B0001FA03F31A43E7
:1006B0007B689A607B685A687B699BB21946012304
:1006C0008B40DB431A407B685A607B685B683A6802
:1006D000927911467A6992B201FA02F292B21A4301
:1006E0007B685A607B68DA687B699BB25B00032198
:1006F00001FA03F3DB431A407B68DA607B68DA684F
:100700003B68DB7919467B695B0001FA03F31A4306
:100710007B68DA607B6901337B617B690F2B85D94C
:100720001C37BD465DF8047B704700BF80B483B0C2
:1007300000AF78600B467B807B685A697B885A40A3
:100740007B685A610C37BD465DF8047B704700BF7B
:1007500080B483B000AF7860044B7A68D2B21A706C
:100760000C37BD465DF8047B704700BF003C02407B
:1007700080B584B002AFFFF7F3FD0120FFF718FE4C
:10078000FFF728FE0346FB71FB79012B26D10723D7
:1007900000934FF4800008214FF4A8720223FFF762
:1007A00041FE0120FFF75CFE00BF3920FFF7F6FE97
:1007B0000346002BF9D00520FFF7CAFF0020FFF702
:1007C0007BFE4FF4A050FFF793FE4FF48050FFF7ED
:1007D000ABFE0220FFF754FE012300E00023184681
:0807E0000837BD4680BD00BFD3
:1007E800007A030A00000000000000000102030470
:0407F80006070809DF
:0400000508000000EF
:00000001FF
