:020000040800F2
:1000000018080020350300088D0300088D03000840
:100010008D0300088D0300088D0300080000000018
:100020000000000000000000000000008D03000838
:100030008D030008000000008D030008C5020008C1
:100040008D0300088D0300088D0300088D03000850
:100050008D0300088D030008950300088D03000838
:100060008D0300088D0300088D0300088D03000830
:100070008D0300088D0300088D0300088D03000820
:100080008D0300088D0300088D0300088D03000810
:100090008D0300088D0300088D0300088D03000800
:1000A0008D0300088D0300088D0300088D030008F0
:1000B0008D0300088D0300088D0300088D030008E0
:1000C0008D0300088D0300088D0300088D030008D0
:1000D0008D0300088D0300088D0300088D030008C0
:1000E0008D0300088D0300088D0300088D030008B0
:1000F0008D0300088D0300088D0300088D030008A0
:100100008D0300088D0300088D0300088D0300088F
:100110008D0300088D0300088D0300088D0300087F
:100120008D0300088D0300088D0300088D0300086F
:100130008D0300088D0300088D0300088D0300085F
:100140008D0300088D0300088D0300088D0300084F
:100150008D0300088D0300088D0300088D0300083F
:100160008D0300088D0300088D0300088D0300082F
:100170008D0300088D0300088D0300088D0300081F
:100180008D0300088D03000890B484B000AF0346CF
:100190000A46FB711346BB710023FB60BB7903F079
:1001A00003039B000F2202FA03F3FB601649BB799D
:1001B0009B08DBB21846144ABB799B08DBB20233BA
:1001C00052F82320FB68DB431A40831C41F82320AC
:1001D0000D48BB799B08DBB21C460B4ABB799B08D8
:1001E000DBB2023352F82320F979BB7903F0030321
:1001F0009B0001FA03F31A43A31C40F82320103795
:10020000BD4690BC704700BF0038014080B483B049
:1002100000AF03463960FB7197F90730002B0BDA0A
:100220000D49FB7903F00F03043B3A68D2B2120187
:10023000D2B20B441A7609E0084997F907303A68B8
:10024000D2B21201D2B20B4483F800230C37BD4660
:100250005DF8047B704700BF00ED00E000E100E0C6
:1002600080B582B000AF78607B68B3F1807F01D346
:10027000012311E00A4A7B6823F07F43013B53606E
:100280004FF0FF300F21FFF7C1FF054B00229A60AE
:10029000034B07221A60002318460837BD4680BD6D
:1002A00010E000E080B500AF044B1B68044AA2FBDD
:1002B00003239B0C1846FFF7D3FF80BD00000020EE
:1002C00083DE1B4380B400AF064B1B68002B04D0B9
:1002D000044B1B68013B034A1360BD465DF8047B79
:1002E000704700BF1400002080B483B000AF786076
:1002F000064A7B68136000BF044B1B68002BFBD1D0
:100300000C37BD465DF8047B704700BF1400002029
:1003100080B582B000AF786003E04FF47A70FFF7E9
:10032000E3FF7B685A1E7A60002BF6D10837BD4682
:1003300080BD00BF80B582B000AF0F4B7B600F4B1C
:100340003B6007E03B681A1D3A607A68111D7960CE
:1003500012681A603B680A4A9342F3D309480A4973
:100360004FF000028842B8BF40F8042BFADB00F0DF
:1003700025F80837BD4680BD580B00080000002056
:1003800014000020140000201800002080B400AFEA
:10039000FEE700BF80B500AF012000F00FFB034671
:1003A000002B07D004484FF4005100F073FA0120ED
:1003B00000F028FB80BD00BF000C024080B582B079
:1003C00000AF00F08DFBFFF76DFF0820012100F06A
:1003D0005DF901233B710023BB714FF420433B6067
:1003E0000023FB7100237B713B460848194600F04F
:1003F000C3F900F00DF805484FF4004100F04AFA47
:1004000041F28830FFF784FFF5E700BF000C02409F
:1004100080B586B000AF0120012100F037F94FF41C
:100420008040012100F050F900233B750023BB758B
:1004300001233B610223FB7500237B7507F1100349
:100440001148194600F098F900200021FFF79CFEA2
:100450000123BB600123BB7300233B7308237B7321
:1004600007F10803184600F037FA06233B71012311
:10047000FB7100237B710023BB713B1D184600F00C
:10048000CFFA1837BD4680BD0000024080B400AFEF
:10049000104A104B1B6843F0010313600D4B002200
:1004A0009A600C4A0B4B1B6823F0847323F480334F
:1004B0001360084B084A5A60064A064B1B6823F42F
:1004C00080231360034B0022DA60BD465DF8047B95
:1004D000704700BF003802401030002480B483B061
:1004E00000AF0346FB71054B00221A70034AFB79EB
:1004F00013700C37BD465DF8047B7047023802402C
:1005000080B582B000AF00233B600023FB71002365
:10051000BB71312000F0F6F80346BB713B68013334
:100520003B603B68B3F5A06F02D0BB79002BF0D0E5
:10053000312000F0E7F80346002B02D00123FB71C5
:1005400001E00023FB71FB7918460837BD4680BDEA
:1005500080B485B000AFF860B9607A603B600A494A
:100560007B689A01BB681A433B685B08013B1B042C
:100570001A43FB681A43BB691B0613434B601437CD
:10058000BD465DF8047B70470038024080B483B0FC
:1005900000AF0346FB71044AFB7913600C37BD467C
:1005A0005DF8047B704700BF6000474280B485B0AF
:1005B00000AF78600023FB60094B9B68FB60FB6821
:1005C00023F00303FB60FA687B681343FB60044A73
:1005D000FB6893601437BD465DF8047B704700BF2D
:1005E0000038024080B485B000AF78600023FB6023
:1005F000094B9B68FB60FB6823F0F003FB60FA6823
:100600007B681343FB60044AFB6893601437BD4664
:100610005DF8047B704700BF0038024080B485B0AD
:1006200000AF78600023FB60094B9B68FB60FB68B0
:1006300023F4E053FB60FA687B681343FB60044AD1
:10064000FB6893601437BD465DF8047B704700BFBC
:100650000038024080B485B000AF78600023FB60B2
:10066000094B9B68FB60FB6823F46043FB607B687D
:10067000DB00FA681343FB60034AFB68936014379E
:10068000BD465DF8047B70470038024080B483B0FB
:1006900000AF78600B46FB70FB78002B06D0094951
:1006A000084B1A6B7B6813430B6306E00549054B47
:1006B0001A6B7B68DB4313400B630C37BD465DF858
:1006C000047B70470038024080B483B000AF78608C
:1006D0000B46FB70FB78002B06D00949084B5A6C7F
:1006E0007B6813434B6406E00549054B5A6C7B68F5
:1006F000DB4313404B640C37BD465DF8047B704709
:100700000038024080B487B000AF0346FB7100237D
:10071000FB6000237B610023FB74FB795B09DBB288
:10072000FB60FB68012B03D1124B1B687B6109E066
:10073000FB68022B03D10F4B1B6F7B6102E00D4B5B
:100740005B6F7B61FB7903F01F03FB60FB687A69D9
:1007500022FA03F303F00103002B02D00123FB7400
:1007600001E00023FB74FB7C18461C37BD465DF896
:10077000047B70470038024080B487B000AF7860D7
:10078000396000237B6100233B610023FB60002371
:100790007B6176E07B69012202FA03F33B613B68EF
:1007A0001A683B691340FB60FA683B699A4265D15D
:1007B0007B681A687B695B00194603238B40DB4327
:1007C0001A407B681A607B681A683B681B79194677
:1007D0007B695B0001FA03F31A437B681A603B688C
:1007E0001B79012B03D03B681B79022B2ED17B6830
:1007F0009A687B695B00194603238B40DB431A40F0
:100800007B689A607B689A683B685B7919467B696C
:100810005B0001FA03F31A437B689A607B685A68AD
:100820007B699BB2194601238B40DB431A407B68EE
:100830005A607B685B683A68927911467A6992B22D
:1008400001FA02F292B21A437B685A607B68DA6856
:100850007B699BB25B00032101FA03F3DB431A407F
:100860007B68DA607B68DA683B68DB7919467B690C
:100870005B0001FA03F31A437B68DA607B6901339A
:100880007B617B690F2B85D91C37BD465DF8047BE6
:10089000704700BF80B483B000AF78600B467B80A8
:1008A0007B685A697B885A407B685A610C37BD4621
:1008B0005DF8047B704700BF80B483B000AF786000
:1008C000044B7A68D2B21A700C37BD465DF8047BCF
:1008D000704700BF003C024080B485B000AF786034
:1008E0000023FB60344BFB607B689B79002B4FD06F
:1008F0003149314B1A687B681B68DB4313400B603E
:100900002D492D4B5A687B681B68DB4313404B60B5
:100910007B681B791A46FB681344FB60FB68FA6826
:1009200011687A6812680A431A602349224B9A6850
:100930007B681B68DB4313408B601F491E4BDA68E2
:100940007B681B68DB431340CB607B685B79102BB3
:100950000ED11949184B9A687B681B6813438B604A
:100960001549154BDA687B681B681343CB601DE0A3
:10097000114BFB607B685B791A46FB681344FB6094
:10098000FB68FA6811687A6812680A431A600DE019
:100990007B681B791A46FB681344FB60FB68FA68A6
:1009A00011687A681268D2430A401A601437BD464B
:1009B0005DF8047B704700BF003C014080B485B007
:1009C00000AF78600023FB730023BB600C4B1A68F8
:1009D0007B681340BB600A4B5A697B681340002B4D
:1009E00005D0BB68002B02D00123FB7301E000237C
:1009F000FB73FB7B18461437BD465DF8047B7047DC
:100A0000003C014080B483B000AF7860034A7B684B
:100A100053610C37BD465DF8047B7047003C0140D4
:100A200080B485B000AF78600023FB730023BB73F4
:100A30000F237B737B68DB78002B38D0264BDB6879
:100A4000DB4303F4E0631B0AFB73FB7BC3F104038A
:100A5000BB737A7BFB7B42FA03F37B737B685B7827
:100A60001A46BB7B02FA03F3FB737B689A787B7BA5
:100A70001340DAB2FB7B1343FB73FB7B1B01FB735D
:100A8000164A7B681B781344FA7B83F80023134AC9
:100A90007B681B785B09DBB218467B681B7803F028
:100AA0001F03012101FA03F342F820300FE00B4944
:100AB0007B681B785B09DBB218467B681B7803F008
:100AC0001F0301229A4000F1200341F8232014372C
:100AD000BD465DF8047B704700ED00E000E100E0FA
:100AE00080B584B002AFFFF7D1FC0120FFF7F6FC20
:100AF000FFF706FD0346FB71FB79012B26D1072387
:100B000000934FF4800008214FF4A8720223FFF7EE
:100B10001FFD0120FFF73AFD00BF3920FFF7F2FD6E
:100B20000346002BF9D00520FFF7C6FE0020FFF793
:100B300059FD4FF4A050FFF771FD4FF48050FFF7BF
:100B400089FD0220FFF732FD012300E00023184653
:080B50000837BD4680BD00BF5F
:100B5800007A030A000000000000000001020304FC
:040B6800060708096B
:0400000508000000EF
:00000001FF
