:020000040800F2
:100000001808002089010008E1010008E10100084A
:10001000E1010008E1010008E10100080000000022
:10002000000000000000000000000000E1010008E6
:10003000E101000800000000E1010008E101000802
:10004000E1010008E1010008E1010008E101000808
:10005000E1010008E1010008E1010008E1010008F8
:10006000E1010008E1010008E1010008E1010008E8
:10007000E1010008E1010008E1010008E1010008D8
:10008000E1010008E1010008E1010008E1010008C8
:10009000E1010008E1010008E1010008E1010008B8
:1000A000E1010008E1010008E1010008E1010008A8
:1000B000E1010008E1010008E1010008E101000898
:1000C000E1010008E1010008E1010008E101000888
:1000D000E1010008E1010008E1010008E101000878
:1000E000E1010008E1010008E1010008E101000868
:1000F000E1010008E1010008E1010008E101000858
:10010000E1010008E1010008E1010008E101000847
:10011000E1010008E1010008E1010008E101000837
:10012000E1010008E1010008E1010008E101000827
:10013000E1010008E1010008E1010008E101000817
:10014000E1010008E1010008E1010008E101000807
:10015000E1010008E1010008E1010008E1010008F7
:10016000E1010008E1010008E1010008E1010008E7
:10017000E1010008E1010008E1010008E1010008D7
:10018000E1010008E101000880B582B000AF0F4B2B
:100190007B600F4B3B6007E03B681A1D3A607A6852
:1001A000111D796012681A603B680A4A9342F3D3C2
:1001B00009480A494FF000028842B8BF40F8042BB2
:1001C000FADB00F011F80837BD4680BDFC050008D9
:1001D0000000002014000020140000201400002063
:1001E00080B400AFFEE700BF80B500AF00F0CAF9F1
:1001F00000F04CF9FEE700BF80B400AF104A104B8E
:100200001B6843F0010313600D4B00229A600C4AF7
:100210000B4B1B6823F0847323F480331360084B6B
:10022000084A5A60064A064B1B6823F48023136071
:10023000034B0022DA60BD465DF8047B704700BFC7
:10024000003802401030002480B483B000AF034671
:10025000FB71054B00221A70034AFB7913700C37AF
:10026000BD465DF8047B70470238024080B582B01D
:1002700000AF00233B600023FB710023BB713120E2
:1002800000F0BAF80346BB713B6801333B603B6842
:10029000B3F5A06F02D0BB79002BF0D0312000F075
:1002A000ABF80346002B02D00123FB7101E00023D1
:1002B000FB71FB7918460837BD4680BD80B485B018
:1002C00000AFF860B9607A603B600A497B689A01C8
:1002D000BB681A433B685B08013B1B041A43FB687D
:1002E0001A43BB691B0613434B601437BD465DF8C8
:1002F000047B70470038024080B483B000AF0346EF
:10030000FB71044AFB7913600C37BD465DF8047B32
:10031000704700BF6000474280B485B000AF78608E
:100320000023FB60094B9B68FB60FB6823F0030321
:10033000FB60FA687B681343FB60044AFB689360C8
:100340001437BD465DF8047B704700BF003802409B
:1003500080B485B000AF78600023FB60094B9B68D8
:10036000FB60FB6823F0F003FB60FA687B681343D3
:10037000FB60044AFB6893601437BD465DF8047B5C
:10038000704700BF0038024080B485B000AF78608D
:100390000023FB60094B9B68FB60FB6823F4E05380
:1003A000FB60FA687B681343FB60044AFB68936058
:1003B0001437BD465DF8047B704700BF003802402B
:1003C00080B485B000AF78600023FB60094B9B6868
:1003D000FB60FB6823F46043FB607B68DB00FA682A
:1003E0001343FB60034AFB6893601437BD465DF816
:1003F000047B70470038024080B487B000AF0346EA
:10040000FB710023FB6000237B610023FB74FB79FD
:100410005B09DBB2FB60FB68012B03D1124B1B684D
:100420007B6109E0FB68022B03D10F4B1B6F7B61E3
:1004300002E00D4B5B6F7B61FB7903F01F03FB60F8
:10044000FB687A6922FA03F303F00103002B02D060
:100450000123FB7401E00023FB74FB7C18461C376E
:10046000BD465DF8047B70470038024080B483B01D
:1004700000AF7860044B7A68D2B21A700C37BD4670
:100480005DF8047B704700BF003C024080B487B039
:1004900000AF00233B6100237B610223FB6000234C
:1004A000BB6002237B60324B9B6803F00C033B6113
:1004B0003B69042B07D0082B09D0002B3FD12D4BD3
:1004C0002D4A1A603FE02B4B2C4A1A603BE0284B28
:1004D0005B6803F480039B0DBB60254B5B6803F0F6
:1004E0003F037B60BB68002B0DD0244A7B68B2FBC6
:1004F000F3F21F4B596847F6C0730B409B0903FB8F
:1005000002F37B610CE01C4A7B68B2FBF3F2184BF0
:10051000596847F6C0730B409B0903FB02F37B61EC
:10052000134B5B6803F440331B0C01335B00FB602F
:100530007A69FB68B2FBF3F30E4A136003E00D4BDC
:100540000D4A1A6000BF0A4B9B6803F0F0031B09B9
:100550000B4AD35CDBB23B61064B1A683B6922FA5B
:1005600003F3044A13601C37BD465DF8047B7047F3
:1005700000380240000000200024F40000127A003D
:100580000400002080B584B002AFFFF735FE0120E3
:10059000FFF75AFEFFF76AFE0346FB71FB79012B5A
:1005A00026D1072300934FF4800008214FF4A8724E
:1005B0000223FFF783FE0120FFF79EFE00BF3920D4
:1005C000FFF71AFF0346002BF9D00520FFF74EFF77
:1005D0000020FFF7BDFE4FF4A050FFF7D5FE4FF40B
:1005E0008050FFF7EDFE0220FFF796FE012300E0AA
:0C05F000002318460837BD4680BD00BF40
:1005FC00007A030A0000000000000000010203045E
:04060C0006070809CC
:0400000508000000EF
:00000001FF
