:020000040800F2
:1000000018080020B10200080903000809030008CD
:1000100009030008090300080903000800000000A4
:1000200000000000000000000000000009030008BC
:10003000090300080000000009030008410200084D
:100040000903000809030008090300080903000860
:100050000903000809030008090300080903000850
:100060000903000809030008090300080903000840
:100070000903000809030008090300080903000830
:100080000903000809030008090300080903000820
:100090000903000809030008090300080903000810
:1000A0000903000809030008090300080903000800
:1000B00009030008090300080903000809030008F0
:1000C00009030008090300080903000809030008E0
:1000D00009030008090300080903000809030008D0
:1000E00009030008090300080903000809030008C0
:1000F00009030008090300080903000809030008B0
:10010000090300080903000809030008090300089F
:10011000090300080903000809030008090300088F
:10012000090300080903000809030008090300087F
:10013000090300080903000809030008090300086F
:10014000090300080903000809030008090300085F
:10015000090300080903000809030008090300084F
:10016000090300080903000809030008090300083F
:10017000090300080903000809030008090300082F
:10018000090300080903000880B483B000AF0346E8
:100190003960FB7197F90730002B0BDA0D49FB79B9
:1001A00003F00F03043B3A68D2B21201D2B20B44FF
:1001B0001A7609E0084997F907303A68D2B2120175
:1001C000D2B20B4483F800230C37BD465DF8047BA4
:1001D000704700BF00ED00E000E100E080B582B0B4
:1001E00000AF78607B68B3F1807F01D3012311E019
:1001F0000A4A7B6823F07F43013B53604FF0FF3096
:100200000F21FFF7C1FF054B00229A60034B072225
:100210001A60002318460837BD4680BD10E000E094
:1002200080B500AF044B1B68044AA2FB03239B0C60
:100230001846FFF7D3FF80BD0000002083DE1B437C
:1002400080B400AF064B1B68002B04D0044B1B6826
:10025000013B034A1360BD465DF8047B704700BF55
:100260001400002080B483B000AF7860064A7B6839
:10027000136000BF044B1B68002BFBD10C37BD463D
:100280005DF8047B704700BF1400002080B582B089
:1002900000AF786003E04FF47A70FFF7E3FF7B680C
:1002A0005A1E7A60002BF6D10837BD4680BD00BFCC
:1002B00080B582B000AF0F4B7B600F4B3B6007E017
:1002C0003B681A1D3A607A68111D796012681A60DD
:1002D0003B680A4A9342F3D309480A494FF00002A7
:1002E0008842B8BF40F8042BFADB00F011F8083759
:1002F000BD4680BDA40F00080000002014000020AF
:10030000140000201800002080B400AFFEE700BFFA
:1003100080B500AF00F00AFEFFF782FF00F0C2F8E0
:1003200042F2CF0000F030F9002000F03DF900204B
:1003300000F04AF94FF4FA70FFF7A8FF42F2CF003D
:1003400000F022F941F2670000F02EF9002000F0E1
:100350003BF94FF4FA70FFF799FF42F2CF0000F03B
:1003600013F942F2CF0000F01FF9002000F02CF941
:100370004FF4FA70FFF78AFF41F2670000F004F9CA
:1003800042F2CF0000F010F9002000F01DF94FF408
:10039000FA70FFF77BFF002000F0F6F842F2CF0082
:1003A00000F002F9002000F00FF94FF4FA70FFF7A7
:1003B0006DFF002000F0E8F842F2CF0000F0F4F802
:1003C00041F2670000F000F94FF4FA70FFF75EFFAA
:1003D000002000F0D9F842F2CF0000F0E5F842F238
:1003E000CF0000F0F1F84FF4FA70FFF74FFF002054
:1003F00000F0CAF841F2670000F0D6F842F2CF00F0
:1004000000F0E2F84FF4FA70FFF740FF002000F030
:10041000BBF8002000F0C8F842F2CF0000F0D4F89A
:100420004FF4FA70FFF732FF41F2670000F0ACF8CA
:10043000002000F0B9F842F2CF0000F0C5F84FF408
:10044000FA70FFF723FF42F2CF0000F09DF8002082
:1004500000F0AAF842F2CF0000F0B6F84FF4FA70BC
:10046000FFF714FF42F2CF0000F08EF8002000F0FA
:100470009BF841F2670000F0A7F84FF4FA70FFF71D
:1004800005FF42F2CF0000F07FF842F2CF0000F00B
:100490008BF842F2CF0000F097F84FF4FA70FFF7B4
:1004A000F5FE3DE780B58AB000AF0420012100F0E1
:1004B000B9F90023BB8342F2CF033B620023BB8424
:1004C0000023FB83002387F8263007F11C032C4808
:1004D000194600F0E5FA2A48012100F04BFB6023A1
:1004E0003B8101237B810223BB8200233B6107F117
:1004F00008032348194600F05DFB2148082100F05D
:10050000BFFC00233B6107F108031D48194600F0BA
:10051000CBFB1B48082100F0CFFC00233B6107F117
:1005200008031748194600F045FC1548082100F05B
:10053000DFFC0820012100F057F912480C210222AB
:1005400000F056FA0F480E21022200F051FA0D4831
:100550000F21022200F04CFA4FF450433B6000237D
:10056000BB710023FB7102233B7100237B713B466F
:100570000448194600F0AEF92837BD4680BD00BFDB
:1005800000080040000C024080B483B000AF034676
:10059000FB80044AFB88D3630C37BD465DF8047BBF
:1005A000704700BF0008004080B483B000AF03462E
:1005B000FB80044AFB8853630C37BD465DF8047B1F
:1005C000704700BF0008004080B483B000AF03460E
:1005D000FB80044AFB8813640C37BD465DF8047B3E
:1005E000704700BF0008004080B400AF104A104BB5
:1005F0001B6843F0010313600D4B00229A600C4A04
:100600000B4B1B6823F0847323F480331360084B77
:10061000084A5A60064A064B1B6823F4802313607D
:10062000034B0022DA60BD465DF8047B704700BFD3
:10063000003802401030002480B483B000AF03467D
:10064000FB71054B00221A70034AFB7913700C37BB
:10065000BD465DF8047B70470238024080B582B029
:1006600000AF00233B600023FB710023BB713120EE
:1006700000F0F6F80346BB713B6801333B603B6812
:10068000B3F5A06F02D0BB79002BF0D0312000F081
:10069000E7F80346002B02D00123FB7101E00023A1
:1006A000FB71FB7918460837BD4680BD80B485B024
:1006B00000AFF860B9607A603B600A497B689A01D4
:1006C000BB681A433B685B08013B1B041A43FB6889
:1006D0001A43BB691B0613434B601437BD465DF8D4
:1006E000047B70470038024080B483B000AF0346FB
:1006F000FB71044AFB7913600C37BD465DF8047B3F
:10070000704700BF6000474280B485B000AF78609A
:100710000023FB60094B9B68FB60FB6823F003032D
:10072000FB60FA687B681343FB60044AFB689360D4
:100730001437BD465DF8047B704700BF00380240A7
:1007400080B485B000AF78600023FB60094B9B68E4
:10075000FB60FB6823F0F003FB60FA687B681343DF
:10076000FB60044AFB6893601437BD465DF8047B68
:10077000704700BF0038024080B485B000AF786099
:100780000023FB60094B9B68FB60FB6823F4E0538C
:10079000FB60FA687B681343FB60044AFB68936064
:1007A0001437BD465DF8047B704700BF0038024037
:1007B00080B485B000AF78600023FB60094B9B6874
:1007C000FB60FB6823F46043FB607B68DB00FA6836
:1007D0001343FB60034AFB6893601437BD465DF822
:1007E000047B70470038024080B483B000AF78606B
:1007F0000B46FB70FB78002B06D00949084B1A6B9F
:100800007B6813430B6306E00549054B1A6B7B6855
:10081000DB4313400B630C37BD465DF8047B704728
:100820000038024080B483B000AF78600B46FB70A4
:10083000FB78002B06D00949084B1A6C7B681343E0
:100840000B6406E00549054B1A6C7B68DB431340DB
:100850000B640C37BD465DF8047B704700380240DE
:1008600080B487B000AF0346FB710023FB60002318
:100870007B610023FB74FB795B09DBB2FB60FB68E7
:10088000012B03D1124B1B687B6109E0FB68022B33
:1008900003D10F4B1B6F7B6102E00D4B5B6F7B61E4
:1008A000FB7903F01F03FB60FB687A6922FA03F30C
:1008B00003F00103002B02D00123FB7401E00023AD
:1008C000FB74FB7C18461C37BD465DF8047B704703
:1008D0000038024080B487B000AF786039600023F0
:1008E0007B6100233B610023FB6000237B6176E09A
:1008F0007B69012202FA03F33B613B681A683B699A
:100900001340FB60FA683B699A4265D17B681A68BC
:100910007B695B00194603238B40DB431A407B68ED
:100920001A607B681A683B681B7919467B695B0013
:1009300001FA03F31A437B681A603B681B79012BA9
:1009400003D03B681B79022B2ED17B689A687B69A8
:100950005B00194603238B40DB431A407B689A6097
:100960007B689A683B685B7919467B695B0001FA92
:1009700003F31A437B689A607B685A687B699BB271
:10098000194601238B40DB431A407B685A607B6821
:100990005B683A68927911467A6992B201FA02F27A
:1009A00092B21A437B685A607B68DA687B699BB2B3
:1009B0005B00032101FA03F3DB431A407B68DA6032
:1009C0007B68DA683B68DB7919467B695B0001FA72
:1009D00003F31A437B68DA607B6901337B617B69CF
:1009E0000F2B85D91C37BD465DF8047B704700BFCF
:1009F00080B485B000AF78600B467B8013467B7077
:100A00000023FB600023BB607B787A8802F007023A
:100A100092009340FB607B88DB089BB218467B8882
:100A2000DB089BB21A467B68083253F822207B8889
:100A300003F007039B0019460F238B40DB4302EAB8
:100A400003017B6800F1080243F822107B88DB0871
:100A50009BB21A467B68083253F82220FB68134386
:100A6000BB607B88DB089BB21A467B680832B9689A
:100A700043F822101437BD465DF8047B704700BF71
:100A800080B483B000AF7860044B7A68D2B21A7039
:100A90000C37BD465DF8047B704700BF003C024048
:100AA00080B485B000AF786039600023FB817B683B
:100AB0001B88FB817B68284A934213D07B68274AB6
:100AC00093420FD07B68B3F1804F0BD07B68244AF0
:100AD000934207D07B68234A934203D07B68224A23
:100AE000934208D1FB8923F07003FB813B685A884D
:100AF000FB891343FB817B681C4A93420CD07B68C3
:100B00001B4A934208D0FB8923F44073FB813B6866
:100B10001A89FB891343FB817B68FA891A803B6839
:100B20005A687B68DA623B681A887B681A857B683A
:100B3000094A934203D07B68084A934204D13B6838
:100B40009B7A9AB27B681A867B6801229A82143754
:100B5000BD465DF8047B7047000001400004014081
:100B60000004004000080040000C0040001000405D
:100B70000014004080B483B000AF78600B46FB7077
:100B8000FB78002B08D07B681B889BB243F00103E5
:100B90009AB27B681A8007E07B681B889BB223F0BF
:100BA00001039AB27B681A800C37BD465DF8047B5E
:100BB000704700BF80B485B000AF78603960002313
:100BC0007B810023FB810023BB817B681B8C9BB254
:100BD00023F001039AB27B681A847B681B8CFB812B
:100BE0007B689B88BB817B681B8B7B817B8923F027
:100BF00070037B817B8923F003037B813B681A8828
:100C00007B8913437B81FB8923F00203FB813B68D3
:100C10009A89FB891343FB813B685A88FB891343FC
:100C2000FB817B681E4A934203D07B681D4A934236
:100C300023D1FB8923F00803FB813B68DA89FB8918
:100C40001343FB81FB8923F00403FB813B689A88F3
:100C5000FB891343FB81BB8923F48073BB81BB8970
:100C600023F40073BB813B681A8ABB891343BB81A1
:100C70003B685A8ABB891343BB817B68BA899A80D7
:100C80007B687A891A833B689A687B685A637B68B9
:100C9000FA891A841437BD465DF8047B704700BF9B
:100CA000000001400004014080B485B000AF7860CE
:100CB000396000237B810023FB810023BB817B689B
:100CC0001B8C9BB223F480739AB27B681A847B6876
:100CD0001B8CFB817B689B88BB817B689B8B7B81AA
:100CE0007B8923F070037B817B8923F003037B8165
:100CF0003B681A887B8913437B81FB8923F400734B
:100D0000FB813B689B891B029AB2FB891343FB81E1
:100D10003B685B881B029AB2FB891343FB817B68AB
:100D2000224A934203D07B68214A93422BD1FB890C
:100D300023F40063FB813B68DB891B029AB2FB89C9
:100D40001343FB81FB8923F48063FB813B689B8811
:100D50001B029AB2FB891343FB81BB8923F48053A6
:100D6000BB81BB8923F40053BB813B681B8A1B01F9
:100D70009AB2BB891343BB813B685B8A1B019AB261
:100D8000BB891343BB817B68BA899A807B687A8967
:100D90009A833B689A687B68DA637B68FA891A846D
:100DA0001437BD465DF8047B704700BF000001406A
:100DB0000004014080B485B000AF78603960002342
:100DC000BB8100237B810023FB817B681B8C9BB252
:100DD00023F480539AB27B681A847B681B8C7B81D6
:100DE0007B689B88FB817B689B8BBB81BB8923F4E1
:100DF000E043BB81BB8923F44073BB813B681B8804
:100E00001B029AB2BB891343BB817B8923F4005335
:100E10007B813B689B891B039AB27B8913437B814F
:100E20003B685B881B039AB27B8913437B817B6899
:100E3000114A934203D07B68104A93420AD1FB893E
:100E400023F48043FB813B681B8A9B019AB2FB8998
:100E50001343FB817B68FA899A807B68BA899A83FD
:100E60003B689A687B681A647B687A891A841437AD
:100E7000BD465DF8047B704700000140000401405E
:100E800080B485B000AF78600B467B800023FB8187
:100E90007B681B8BFB81FB8923F00803FB81FA89AC
:100EA0007B881343FB817B68FA891A831437BD461C
:100EB0005DF8047B704700BF80B485B000AF7860F8
:100EC0000B467B800023FB817B689B8BFB81FB892E
:100ED00023F00803FB81FA897B881343FB817B683D
:100EE000FA899A831437BD465DF8047B704700BFCA
:100EF00080B485B000AF78600B467B800023FB8117
:100F00007B689B8BFB81FB8923F40063FB817B88DF
:100F10001B029AB2FB891343FB817B68FA899A838F
:100F20001437BD465DF8047B704700BF80B584B0C0
:100F300002AFFFF759FB0120FFF77EFBFFF78EFBA7
:100F40000346FB71FB79012B26D1072300934FF455
:100F5000800008214FF4A8720223FFF7A7FB0120AD
:100F6000FFF7C2FB00BF3920FFF77AFC0346002BD6
:100F7000F9D00520FFF784FD0020FFF7E1FB4FF4D7
:100F8000A050FFF7F9FB4FF48050FFF711FC02204F
:100F9000FFF7BAFB012300E0002318460837BD46DF
:040FA00080BD00BF51
:100FA400007A030A000000000000000001020304AC
:040FB400060708091B
:0400000508000000EF
:00000001FF
